{
	"Fund.sol": {
		"Fund": {
			"abi": [
				{
					"inputs": [],
					"stateMutability": "nonpayable",
					"type": "constructor"
				},
				{
					"inputs": [],
					"name": "autoRefund",
					"outputs": [],
					"stateMutability": "nonpayable",
					"type": "function"
				},
				{
					"inputs": [],
					"name": "fund",
					"outputs": [],
					"stateMutability": "payable",
					"type": "function"
				},
				{
					"inputs": [
						{
							"internalType": "uint256",
							"name": "",
							"type": "uint256"
						}
					],
					"name": "funders",
					"outputs": [
						{
							"internalType": "address",
							"name": "",
							"type": "address"
						}
					],
					"stateMutability": "view",
					"type": "function"
				},
				{
					"inputs": [
						{
							"internalType": "address",
							"name": "",
							"type": "address"
						}
					],
					"name": "fundersToAccount",
					"outputs": [
						{
							"internalType": "uint256",
							"name": "",
							"type": "uint256"
						}
					],
					"stateMutability": "view",
					"type": "function"
				},
				{
					"inputs": [],
					"name": "getBalance",
					"outputs": [
						{
							"internalType": "uint256",
							"name": "",
							"type": "uint256"
						}
					],
					"stateMutability": "view",
					"type": "function"
				},
				{
					"inputs": [],
					"name": "getFund",
					"outputs": [],
					"stateMutability": "nonpayable",
					"type": "function"
				},
				{
					"inputs": [],
					"name": "refund",
					"outputs": [],
					"stateMutability": "nonpayable",
					"type": "function"
				},
				{
					"inputs": [
						{
							"internalType": "address",
							"name": "_addr",
							"type": "address"
						}
					],
					"name": "setOwner",
					"outputs": [
						{
							"internalType": "address",
							"name": "_owner",
							"type": "address"
						}
					],
					"stateMutability": "nonpayable",
					"type": "function"
				}
			],
			"devdoc": {
				"kind": "dev",
				"methods": {},
				"version": 1
			},
			"evm": {
				"assembly": "    /* \"Fund.sol\":380:2097  contract Fund {... */\n  mstore(0x40, 0x80)\n    /* \"Fund.sol\":507:556  constructor() {... */\n  callvalue\n  dup1\n  iszero\n  tag_1\n  jumpi\n  revert(0x00, 0x00)\ntag_1:\n  pop\n    /* \"Fund.sol\":539:549  msg.sender */\n  caller\n    /* \"Fund.sol\":531:536  owner */\n  0x02\n  0x00\n    /* \"Fund.sol\":531:549  owner = msg.sender */\n  0x0100\n  exp\n  dup2\n  sload\n  dup2\n  0xffffffffffffffffffffffffffffffffffffffff\n  mul\n  not\n  and\n  swap1\n  dup4\n  0xffffffffffffffffffffffffffffffffffffffff\n  and\n  mul\n  or\n  swap1\n  sstore\n  pop\n    /* \"Fund.sol\":380:2097  contract Fund {... */\n  dataSize(sub_0)\n  dup1\n  dataOffset(sub_0)\n  0x00\n  codecopy\n  0x00\n  return\nstop\n\nsub_0: assembly {\n        /* \"Fund.sol\":380:2097  contract Fund {... */\n      mstore(0x40, 0x80)\n      jumpi(tag_1, lt(calldatasize, 0x04))\n      shr(0xe0, calldataload(0x00))\n      dup1\n      0xb60d4288\n      gt\n      tag_10\n      jumpi\n      dup1\n      0xb60d4288\n      eq\n      tag_6\n      jumpi\n      dup1\n      0xb723ae75\n      eq\n      tag_7\n      jumpi\n      dup1\n      0xc6da75a6\n      eq\n      tag_8\n      jumpi\n      dup1\n      0xdc0d3dff\n      eq\n      tag_9\n      jumpi\n      jump(tag_1)\n    tag_10:\n      dup1\n      0x12065fe0\n      eq\n      tag_2\n      jumpi\n      dup1\n      0x13af4035\n      eq\n      tag_3\n      jumpi\n      dup1\n      0x590e1ae3\n      eq\n      tag_4\n      jumpi\n      dup1\n      0x8edd6eb6\n      eq\n      tag_5\n      jumpi\n    tag_1:\n      revert(0x00, 0x00)\n        /* \"Fund.sol\":1431:1530  function getBalance() external view returns (uint256) {... */\n    tag_2:\n      callvalue\n      dup1\n      iszero\n      tag_11\n      jumpi\n      revert(0x00, 0x00)\n    tag_11:\n      pop\n      tag_12\n      tag_13\n      jump\t// in\n    tag_12:\n      mload(0x40)\n      tag_14\n      swap2\n      swap1\n      tag_15\n      jump\t// in\n    tag_14:\n      mload(0x40)\n      dup1\n      swap2\n      sub\n      swap1\n      return\n        /* \"Fund.sol\":1691:1840  function setOwner(address _addr) public onlyOwner validAddress(_addr) returns (address _owner) {... */\n    tag_3:\n      callvalue\n      dup1\n      iszero\n      tag_16\n      jumpi\n      revert(0x00, 0x00)\n    tag_16:\n      pop\n      tag_17\n      0x04\n      dup1\n      calldatasize\n      sub\n      dup2\n      add\n      swap1\n      tag_18\n      swap2\n      swap1\n      tag_19\n      jump\t// in\n    tag_18:\n      tag_20\n      jump\t// in\n    tag_17:\n      mload(0x40)\n      tag_21\n      swap2\n      swap1\n      tag_22\n      jump\t// in\n    tag_21:\n      mload(0x40)\n      dup1\n      swap2\n      sub\n      swap1\n      return\n        /* \"Fund.sol\":690:1019  function refund() external {... */\n    tag_4:\n      callvalue\n      dup1\n      iszero\n      tag_23\n      jumpi\n      revert(0x00, 0x00)\n    tag_23:\n      pop\n      tag_24\n      tag_25\n      jump\t// in\n    tag_24:\n      stop\n        /* \"Fund.sol\":1536:1685  function getFund() public onlyOwner {... */\n    tag_5:\n      callvalue\n      dup1\n      iszero\n      tag_26\n      jumpi\n      revert(0x00, 0x00)\n    tag_26:\n      pop\n      tag_27\n      tag_28\n      jump\t// in\n    tag_27:\n      stop\n        /* \"Fund.sol\":562:684  function fund() public payable {... */\n    tag_6:\n      tag_29\n      tag_30\n      jump\t// in\n    tag_29:\n      stop\n        /* \"Fund.sol\":1025:1425  function autoRefund() public {... */\n    tag_7:\n      callvalue\n      dup1\n      iszero\n      tag_31\n      jumpi\n      revert(0x00, 0x00)\n    tag_31:\n      pop\n      tag_32\n      tag_33\n      jump\t// in\n    tag_32:\n      stop\n        /* \"Fund.sol\":400:451  mapping(address => uint256) public fundersToAccount */\n    tag_8:\n      callvalue\n      dup1\n      iszero\n      tag_34\n      jumpi\n      revert(0x00, 0x00)\n    tag_34:\n      pop\n      tag_35\n      0x04\n      dup1\n      calldatasize\n      sub\n      dup2\n      add\n      swap1\n      tag_36\n      swap2\n      swap1\n      tag_19\n      jump\t// in\n    tag_36:\n      tag_37\n      jump\t// in\n    tag_35:\n      mload(0x40)\n      tag_38\n      swap2\n      swap1\n      tag_15\n      jump\t// in\n    tag_38:\n      mload(0x40)\n      dup1\n      swap2\n      sub\n      swap1\n      return\n        /* \"Fund.sol\":457:481  address[] public funders */\n    tag_9:\n      callvalue\n      dup1\n      iszero\n      tag_39\n      jumpi\n      revert(0x00, 0x00)\n    tag_39:\n      pop\n      tag_40\n      0x04\n      dup1\n      calldatasize\n      sub\n      dup2\n      add\n      swap1\n      tag_41\n      swap2\n      swap1\n      tag_42\n      jump\t// in\n    tag_41:\n      tag_43\n      jump\t// in\n    tag_40:\n      mload(0x40)\n      tag_44\n      swap2\n      swap1\n      tag_22\n      jump\t// in\n    tag_44:\n      mload(0x40)\n      dup1\n      swap2\n      sub\n      swap1\n      return\n        /* \"Fund.sol\":1431:1530  function getBalance() external view returns (uint256) {... */\n    tag_13:\n        /* \"Fund.sol\":1476:1483  uint256 */\n      0x00\n        /* \"Fund.sol\":1502:1523  address(this).balance */\n      selfbalance\n        /* \"Fund.sol\":1495:1523  return address(this).balance */\n      swap1\n      pop\n        /* \"Fund.sol\":1431:1530  function getBalance() external view returns (uint256) {... */\n      swap1\n      jump\t// out\n        /* \"Fund.sol\":1691:1840  function setOwner(address _addr) public onlyOwner validAddress(_addr) returns (address _owner) {... */\n    tag_20:\n        /* \"Fund.sol\":1770:1784  address _owner */\n      0x00\n        /* \"Fund.sol\":2025:2030  owner */\n      0x02\n      0x00\n      swap1\n      sload\n      swap1\n      0x0100\n      exp\n      swap1\n      div\n      0xffffffffffffffffffffffffffffffffffffffff\n      and\n        /* \"Fund.sol\":2011:2030  msg.sender == owner */\n      0xffffffffffffffffffffffffffffffffffffffff\n      and\n        /* \"Fund.sol\":2011:2021  msg.sender */\n      caller\n        /* \"Fund.sol\":2011:2030  msg.sender == owner */\n      0xffffffffffffffffffffffffffffffffffffffff\n      and\n      eq\n        /* \"Fund.sol\":2003:2077  require(msg.sender == owner, \"This function can only be called by owner.\") */\n      tag_47\n      jumpi\n      mload(0x40)\n      0x08c379a000000000000000000000000000000000000000000000000000000000\n      dup2\n      mstore\n      0x04\n      add\n      tag_48\n      swap1\n      tag_49\n      jump\t// in\n    tag_48:\n      mload(0x40)\n      dup1\n      swap2\n      sub\n      swap1\n      revert\n    tag_47:\n        /* \"Fund.sol\":1754:1759  _addr */\n      dup2\n        /* \"Fund.sol\":1915:1920  _addr */\n      dup1\n        /* \"Fund.sol\":1901:1920  address(0) != _addr */\n      0xffffffffffffffffffffffffffffffffffffffff\n      and\n        /* \"Fund.sol\":1909:1910  0 */\n      0x00\n        /* \"Fund.sol\":1901:1920  address(0) != _addr */\n      0xffffffffffffffffffffffffffffffffffffffff\n      and\n      sub\n        /* \"Fund.sol\":1893:1948  require(address(0) != _addr, \"The address is invalid.\") */\n      tag_51\n      jumpi\n      mload(0x40)\n      0x08c379a000000000000000000000000000000000000000000000000000000000\n      dup2\n      mstore\n      0x04\n      add\n      tag_52\n      swap1\n      tag_53\n      jump\t// in\n    tag_52:\n      mload(0x40)\n      dup1\n      swap2\n      sub\n      swap1\n      revert\n    tag_51:\n        /* \"Fund.sol\":1805:1810  owner */\n      0x02\n      0x00\n      swap1\n      sload\n      swap1\n      0x0100\n      exp\n      swap1\n      div\n      0xffffffffffffffffffffffffffffffffffffffff\n      and\n        /* \"Fund.sol\":1796:1810  _owner = owner */\n      swap2\n      pop\n        /* \"Fund.sol\":1828:1833  _addr */\n      dup3\n        /* \"Fund.sol\":1820:1825  owner */\n      0x02\n      0x00\n        /* \"Fund.sol\":1820:1833  owner = _addr */\n      0x0100\n      exp\n      dup2\n      sload\n      dup2\n      0xffffffffffffffffffffffffffffffffffffffff\n      mul\n      not\n      and\n      swap1\n      dup4\n      0xffffffffffffffffffffffffffffffffffffffff\n      and\n      mul\n      or\n      swap1\n      sstore\n      pop\n        /* \"Fund.sol\":2087:2088  _ */\n      pop\n        /* \"Fund.sol\":1691:1840  function setOwner(address _addr) public onlyOwner validAddress(_addr) returns (address _owner) {... */\n      swap2\n      swap1\n      pop\n      jump\t// out\n        /* \"Fund.sol\":690:1019  function refund() external {... */\n    tag_25:\n        /* \"Fund.sol\":767:768  0 */\n      0x00\n        /* \"Fund.sol\":735:751  fundersToAccount */\n      0x00\n        /* \"Fund.sol\":735:763  fundersToAccount[msg.sender] */\n      0x00\n        /* \"Fund.sol\":752:762  msg.sender */\n      caller\n        /* \"Fund.sol\":735:763  fundersToAccount[msg.sender] */\n      0xffffffffffffffffffffffffffffffffffffffff\n      and\n      0xffffffffffffffffffffffffffffffffffffffff\n      and\n      dup2\n      mstore\n      0x20\n      add\n      swap1\n      dup2\n      mstore\n      0x20\n      add\n      0x00\n      keccak256\n      sload\n        /* \"Fund.sol\":735:768  fundersToAccount[msg.sender] != 0 */\n      sub\n        /* \"Fund.sol\":727:808  require(fundersToAccount[msg.sender] != 0, \"Sorry, you have no coins to refund.\") */\n      tag_56\n      jumpi\n      mload(0x40)\n      0x08c379a000000000000000000000000000000000000000000000000000000000\n      dup2\n      mstore\n      0x04\n      add\n      tag_57\n      swap1\n      tag_58\n      jump\t// in\n    tag_57:\n      mload(0x40)\n      dup1\n      swap2\n      sub\n      swap1\n      revert\n    tag_56:\n        /* \"Fund.sol\":818:829  bool result */\n      0x00\n        /* \"Fund.sol\":832:837  false */\n      0x00\n        /* \"Fund.sol\":818:837  bool result = false */\n      swap1\n      pop\n        /* \"Fund.sol\":868:878  msg.sender */\n      caller\n        /* \"Fund.sol\":860:884  payable(msg.sender).call */\n      0xffffffffffffffffffffffffffffffffffffffff\n      and\n        /* \"Fund.sol\":892:908  fundersToAccount */\n      0x00\n        /* \"Fund.sol\":892:920  fundersToAccount[msg.sender] */\n      0x00\n        /* \"Fund.sol\":909:919  msg.sender */\n      caller\n        /* \"Fund.sol\":892:920  fundersToAccount[msg.sender] */\n      0xffffffffffffffffffffffffffffffffffffffff\n      and\n      0xffffffffffffffffffffffffffffffffffffffff\n      and\n      dup2\n      mstore\n      0x20\n      add\n      swap1\n      dup2\n      mstore\n      0x20\n      add\n      0x00\n      keccak256\n      sload\n        /* \"Fund.sol\":860:925  payable(msg.sender).call{value: fundersToAccount[msg.sender]}(\"\") */\n      mload(0x40)\n      tag_59\n      swap1\n      tag_60\n      jump\t// in\n    tag_59:\n      0x00\n      mload(0x40)\n      dup1\n      dup4\n      sub\n      dup2\n      dup6\n      dup8\n      gas\n      call\n      swap3\n      pop\n      pop\n      pop\n      returndatasize\n      dup1\n      0x00\n      dup2\n      eq\n      tag_63\n      jumpi\n      mload(0x40)\n      swap2\n      pop\n      and(add(returndatasize, 0x3f), not(0x1f))\n      dup3\n      add\n      0x40\n      mstore\n      returndatasize\n      dup3\n      mstore\n      returndatasize\n      0x00\n      0x20\n      dup5\n      add\n      returndatacopy\n      jump(tag_62)\n    tag_63:\n      0x60\n      swap2\n      pop\n    tag_62:\n      pop\n        /* \"Fund.sol\":847:925  (result, ) = payable(msg.sender).call{value: fundersToAccount[msg.sender]}(\"\") */\n      pop\n      dup1\n      swap2\n      pop\n      pop\n        /* \"Fund.sol\":943:949  result */\n      dup1\n        /* \"Fund.sol\":935:970  require(result, \"Refund tx failed\") */\n      tag_64\n      jumpi\n      mload(0x40)\n      0x08c379a000000000000000000000000000000000000000000000000000000000\n      dup2\n      mstore\n      0x04\n      add\n      tag_65\n      swap1\n      tag_66\n      jump\t// in\n    tag_65:\n      mload(0x40)\n      dup1\n      swap2\n      sub\n      swap1\n      revert\n    tag_64:\n        /* \"Fund.sol\":1011:1012  0 */\n      0x00\n        /* \"Fund.sol\":980:996  fundersToAccount */\n      0x00\n        /* \"Fund.sol\":980:1008  fundersToAccount[msg.sender] */\n      0x00\n        /* \"Fund.sol\":997:1007  msg.sender */\n      caller\n        /* \"Fund.sol\":980:1008  fundersToAccount[msg.sender] */\n      0xffffffffffffffffffffffffffffffffffffffff\n      and\n      0xffffffffffffffffffffffffffffffffffffffff\n      and\n      dup2\n      mstore\n      0x20\n      add\n      swap1\n      dup2\n      mstore\n      0x20\n      add\n      0x00\n      keccak256\n        /* \"Fund.sol\":980:1012  fundersToAccount[msg.sender] = 0 */\n      dup2\n      swap1\n      sstore\n      pop\n        /* \"Fund.sol\":717:1019  {... */\n      pop\n        /* \"Fund.sol\":690:1019  function refund() external {... */\n      jump\t// out\n        /* \"Fund.sol\":1536:1685  function getFund() public onlyOwner {... */\n    tag_28:\n        /* \"Fund.sol\":2025:2030  owner */\n      0x02\n      0x00\n      swap1\n      sload\n      swap1\n      0x0100\n      exp\n      swap1\n      div\n      0xffffffffffffffffffffffffffffffffffffffff\n      and\n        /* \"Fund.sol\":2011:2030  msg.sender == owner */\n      0xffffffffffffffffffffffffffffffffffffffff\n      and\n        /* \"Fund.sol\":2011:2021  msg.sender */\n      caller\n        /* \"Fund.sol\":2011:2030  msg.sender == owner */\n      0xffffffffffffffffffffffffffffffffffffffff\n      and\n      eq\n        /* \"Fund.sol\":2003:2077  require(msg.sender == owner, \"This function can only be called by owner.\") */\n      tag_68\n      jumpi\n      mload(0x40)\n      0x08c379a000000000000000000000000000000000000000000000000000000000\n      dup2\n      mstore\n      0x04\n      add\n      tag_69\n      swap1\n      tag_49\n      jump\t// in\n    tag_69:\n      mload(0x40)\n      dup1\n      swap2\n      sub\n      swap1\n      revert\n    tag_68:\n        /* \"Fund.sol\":1582:1593  bool result */\n      0x00\n        /* \"Fund.sol\":1596:1601  false */\n      0x00\n        /* \"Fund.sol\":1582:1601  bool result = false */\n      swap1\n      pop\n        /* \"Fund.sol\":1632:1642  msg.sender */\n      caller\n        /* \"Fund.sol\":1624:1648  payable(msg.sender).call */\n      0xffffffffffffffffffffffffffffffffffffffff\n      and\n        /* \"Fund.sol\":1656:1660  this */\n      address\n        /* \"Fund.sol\":1656:1671  this.getBalance */\n      0xffffffffffffffffffffffffffffffffffffffff\n      and\n      0x12065fe0\n        /* \"Fund.sol\":1656:1673  this.getBalance() */\n      mload(0x40)\n      dup2\n      0xffffffff\n      and\n      0xe0\n      shl\n      dup2\n      mstore\n      0x04\n      add\n      0x20\n      mload(0x40)\n      dup1\n      dup4\n      sub\n      dup2\n      dup7\n      gas\n      staticcall\n      iszero\n      dup1\n      iszero\n      tag_72\n      jumpi\n      returndatacopy(0x00, 0x00, returndatasize)\n      revert(0x00, returndatasize)\n    tag_72:\n      pop\n      pop\n      pop\n      pop\n      mload(0x40)\n      returndatasize\n      not(0x1f)\n      0x1f\n      dup3\n      add\n      and\n      dup3\n      add\n      dup1\n      0x40\n      mstore\n      pop\n      dup2\n      add\n      swap1\n      tag_73\n      swap2\n      swap1\n      tag_74\n      jump\t// in\n    tag_73:\n        /* \"Fund.sol\":1624:1678  payable(msg.sender).call{value: this.getBalance()}(\"\") */\n      mload(0x40)\n      tag_75\n      swap1\n      tag_60\n      jump\t// in\n    tag_75:\n      0x00\n      mload(0x40)\n      dup1\n      dup4\n      sub\n      dup2\n      dup6\n      dup8\n      gas\n      call\n      swap3\n      pop\n      pop\n      pop\n      returndatasize\n      dup1\n      0x00\n      dup2\n      eq\n      tag_78\n      jumpi\n      mload(0x40)\n      swap2\n      pop\n      and(add(returndatasize, 0x3f), not(0x1f))\n      dup3\n      add\n      0x40\n      mstore\n      returndatasize\n      dup3\n      mstore\n      returndatasize\n      0x00\n      0x20\n      dup5\n      add\n      returndatacopy\n      jump(tag_77)\n    tag_78:\n      0x60\n      swap2\n      pop\n    tag_77:\n      pop\n        /* \"Fund.sol\":1611:1678  (result, ) = payable(msg.sender).call{value: this.getBalance()}(\"\") */\n      pop\n      dup1\n      swap2\n      pop\n      pop\n        /* \"Fund.sol\":1572:1685  {... */\n      pop\n        /* \"Fund.sol\":1536:1685  function getFund() public onlyOwner {... */\n      jump\t// out\n        /* \"Fund.sol\":562:684  function fund() public payable {... */\n    tag_30:\n        /* \"Fund.sol\":603:610  funders */\n      0x01\n        /* \"Fund.sol\":616:626  msg.sender */\n      caller\n        /* \"Fund.sol\":603:627  funders.push(msg.sender) */\n      swap1\n      dup1\n      0x01\n      dup2\n      sload\n      add\n      dup1\n      dup3\n      sstore\n      dup1\n      swap2\n      pop\n      pop\n      0x01\n      swap1\n      sub\n      swap1\n      0x00\n      mstore\n      keccak256(0x00, 0x20)\n      add\n      0x00\n      swap1\n      swap2\n      swap1\n      swap2\n      swap1\n      swap2\n      0x0100\n      exp\n      dup2\n      sload\n      dup2\n      0xffffffffffffffffffffffffffffffffffffffff\n      mul\n      not\n      and\n      swap1\n      dup4\n      0xffffffffffffffffffffffffffffffffffffffff\n      and\n      mul\n      or\n      swap1\n      sstore\n      pop\n        /* \"Fund.sol\":668:677  msg.value */\n      callvalue\n        /* \"Fund.sol\":637:653  fundersToAccount */\n      0x00\n        /* \"Fund.sol\":637:665  fundersToAccount[msg.sender] */\n      0x00\n        /* \"Fund.sol\":654:664  msg.sender */\n      caller\n        /* \"Fund.sol\":637:665  fundersToAccount[msg.sender] */\n      0xffffffffffffffffffffffffffffffffffffffff\n      and\n      0xffffffffffffffffffffffffffffffffffffffff\n      and\n      dup2\n      mstore\n      0x20\n      add\n      swap1\n      dup2\n      mstore\n      0x20\n      add\n      0x00\n      keccak256\n        /* \"Fund.sol\":637:677  fundersToAccount[msg.sender] = msg.value */\n      dup2\n      swap1\n      sstore\n      pop\n        /* \"Fund.sol\":562:684  function fund() public payable {... */\n      jump\t// out\n        /* \"Fund.sol\":1025:1425  function autoRefund() public {... */\n    tag_33:\n        /* \"Fund.sol\":1068:1074  uint i */\n      0x00\n        /* \"Fund.sol\":1075:1076  0 */\n      0x00\n        /* \"Fund.sol\":1068:1076  uint i=0 */\n      swap1\n      pop\n        /* \"Fund.sol\":1064:1419  for(uint i=0; i<funders.length; i++) {... */\n    tag_82:\n        /* \"Fund.sol\":1080:1087  funders */\n      0x01\n        /* \"Fund.sol\":1080:1094  funders.length */\n      dup1\n      sload\n      swap1\n      pop\n        /* \"Fund.sol\":1078:1079  i */\n      dup2\n        /* \"Fund.sol\":1078:1094  i<funders.length */\n      lt\n        /* \"Fund.sol\":1064:1419  for(uint i=0; i<funders.length; i++) {... */\n      iszero\n      tag_83\n      jumpi\n        /* \"Fund.sol\":1115:1131  address refunder */\n      0x00\n        /* \"Fund.sol\":1134:1141  funders */\n      0x01\n        /* \"Fund.sol\":1142:1143  i */\n      dup3\n        /* \"Fund.sol\":1134:1144  funders[i] */\n      dup2\n      sload\n      dup2\n      lt\n      tag_85\n      jumpi\n      tag_86\n      tag_87\n      jump\t// in\n    tag_86:\n    tag_85:\n      swap1\n      0x00\n      mstore\n      keccak256(0x00, 0x20)\n      add\n      0x00\n      swap1\n      sload\n      swap1\n      0x0100\n      exp\n      swap1\n      div\n      0xffffffffffffffffffffffffffffffffffffffff\n      and\n        /* \"Fund.sol\":1115:1144  address refunder = funders[i] */\n      swap1\n      pop\n        /* \"Fund.sol\":1158:1175  bool refundResult */\n      0x00\n        /* \"Fund.sol\":1178:1183  false */\n      0x00\n        /* \"Fund.sol\":1158:1183  bool refundResult = false */\n      swap1\n      pop\n        /* \"Fund.sol\":1224:1232  refunder */\n      dup2\n        /* \"Fund.sol\":1216:1238  payable(refunder).call */\n      0xffffffffffffffffffffffffffffffffffffffff\n      and\n        /* \"Fund.sol\":1246:1262  fundersToAccount */\n      0x00\n        /* \"Fund.sol\":1246:1272  fundersToAccount[refunder] */\n      0x00\n        /* \"Fund.sol\":1263:1271  refunder */\n      dup5\n        /* \"Fund.sol\":1246:1272  fundersToAccount[refunder] */\n      0xffffffffffffffffffffffffffffffffffffffff\n      and\n      0xffffffffffffffffffffffffffffffffffffffff\n      and\n      dup2\n      mstore\n      0x20\n      add\n      swap1\n      dup2\n      mstore\n      0x20\n      add\n      0x00\n      keccak256\n      sload\n        /* \"Fund.sol\":1216:1277  payable(refunder).call{value: fundersToAccount[refunder]}(\"\") */\n      mload(0x40)\n      tag_89\n      swap1\n      tag_60\n      jump\t// in\n    tag_89:\n      0x00\n      mload(0x40)\n      dup1\n      dup4\n      sub\n      dup2\n      dup6\n      dup8\n      gas\n      call\n      swap3\n      pop\n      pop\n      pop\n      returndatasize\n      dup1\n      0x00\n      dup2\n      eq\n      tag_92\n      jumpi\n      mload(0x40)\n      swap2\n      pop\n      and(add(returndatasize, 0x3f), not(0x1f))\n      dup3\n      add\n      0x40\n      mstore\n      returndatasize\n      dup3\n      mstore\n      returndatasize\n      0x00\n      0x20\n      dup5\n      add\n      returndatacopy\n      jump(tag_91)\n    tag_92:\n      0x60\n      swap2\n      pop\n    tag_91:\n      pop\n        /* \"Fund.sol\":1197:1277  (refundResult, ) = payable(refunder).call{value: fundersToAccount[refunder]}(\"\") */\n      pop\n      dup1\n      swap2\n      pop\n      pop\n        /* \"Fund.sol\":1299:1311  refundResult */\n      dup1\n        /* \"Fund.sol\":1291:1333  require(refundResult, \"Refund tx failed \") */\n      tag_93\n      jumpi\n      mload(0x40)\n      0x08c379a000000000000000000000000000000000000000000000000000000000\n      dup2\n      mstore\n      0x04\n      add\n      tag_94\n      swap1\n      tag_95\n      jump\t// in\n    tag_94:\n      mload(0x40)\n      dup1\n      swap2\n      sub\n      swap1\n      revert\n    tag_93:\n        /* \"Fund.sol\":1407:1408  0 */\n      0x00\n        /* \"Fund.sol\":1378:1394  fundersToAccount */\n      0x00\n        /* \"Fund.sol\":1378:1404  fundersToAccount[refunder] */\n      0x00\n        /* \"Fund.sol\":1395:1403  refunder */\n      dup5\n        /* \"Fund.sol\":1378:1404  fundersToAccount[refunder] */\n      0xffffffffffffffffffffffffffffffffffffffff\n      and\n      0xffffffffffffffffffffffffffffffffffffffff\n      and\n      dup2\n      mstore\n      0x20\n      add\n      swap1\n      dup2\n      mstore\n      0x20\n      add\n      0x00\n      keccak256\n        /* \"Fund.sol\":1378:1408  fundersToAccount[refunder] = 0 */\n      dup2\n      swap1\n      sstore\n      pop\n        /* \"Fund.sol\":1101:1419  {... */\n      pop\n      pop\n        /* \"Fund.sol\":1096:1099  i++ */\n      dup1\n      dup1\n      0x01\n      add\n      swap2\n      pop\n      pop\n        /* \"Fund.sol\":1064:1419  for(uint i=0; i<funders.length; i++) {... */\n      jump(tag_82)\n    tag_83:\n      pop\n        /* \"Fund.sol\":1025:1425  function autoRefund() public {... */\n      jump\t// out\n        /* \"Fund.sol\":400:451  mapping(address => uint256) public fundersToAccount */\n    tag_37:\n      mstore(0x20, 0x00)\n      dup1\n      0x00\n      mstore\n      keccak256(0x00, 0x40)\n      0x00\n      swap2\n      pop\n      swap1\n      pop\n      sload\n      dup2\n      jump\t// out\n        /* \"Fund.sol\":457:481  address[] public funders */\n    tag_43:\n      0x01\n      dup2\n      dup2\n      sload\n      dup2\n      lt\n      tag_96\n      jumpi\n      0x00\n      dup1\n      revert\n    tag_96:\n      swap1\n      0x00\n      mstore\n      keccak256(0x00, 0x20)\n      add\n      0x00\n      swap2\n      pop\n      sload\n      swap1\n      0x0100\n      exp\n      swap1\n      div\n      0xffffffffffffffffffffffffffffffffffffffff\n      and\n      dup2\n      jump\t// out\n        /* \"#utility.yul\":7:84   */\n    tag_98:\n        /* \"#utility.yul\":44:51   */\n      0x00\n        /* \"#utility.yul\":73:78   */\n      dup2\n        /* \"#utility.yul\":62:78   */\n      swap1\n      pop\n        /* \"#utility.yul\":7:84   */\n      swap2\n      swap1\n      pop\n      jump\t// out\n        /* \"#utility.yul\":90:208   */\n    tag_99:\n        /* \"#utility.yul\":177:201   */\n      tag_128\n        /* \"#utility.yul\":195:200   */\n      dup2\n        /* \"#utility.yul\":177:201   */\n      tag_98\n      jump\t// in\n    tag_128:\n        /* \"#utility.yul\":172:175   */\n      dup3\n        /* \"#utility.yul\":165:202   */\n      mstore\n        /* \"#utility.yul\":90:208   */\n      pop\n      pop\n      jump\t// out\n        /* \"#utility.yul\":214:436   */\n    tag_15:\n        /* \"#utility.yul\":307:311   */\n      0x00\n        /* \"#utility.yul\":345:347   */\n      0x20\n        /* \"#utility.yul\":334:343   */\n      dup3\n        /* \"#utility.yul\":330:348   */\n      add\n        /* \"#utility.yul\":322:348   */\n      swap1\n      pop\n        /* \"#utility.yul\":358:429   */\n      tag_130\n        /* \"#utility.yul\":426:427   */\n      0x00\n        /* \"#utility.yul\":415:424   */\n      dup4\n        /* \"#utility.yul\":411:428   */\n      add\n        /* \"#utility.yul\":402:408   */\n      dup5\n        /* \"#utility.yul\":358:429   */\n      tag_99\n      jump\t// in\n    tag_130:\n        /* \"#utility.yul\":214:436   */\n      swap3\n      swap2\n      pop\n      pop\n      jump\t// out\n        /* \"#utility.yul\":523:640   */\n    tag_101:\n        /* \"#utility.yul\":632:633   */\n      0x00\n        /* \"#utility.yul\":629:630   */\n      0x00\n        /* \"#utility.yul\":622:634   */\n      revert\n        /* \"#utility.yul\":769:895   */\n    tag_103:\n        /* \"#utility.yul\":806:813   */\n      0x00\n        /* \"#utility.yul\":846:888   */\n      0xffffffffffffffffffffffffffffffffffffffff\n        /* \"#utility.yul\":839:844   */\n      dup3\n        /* \"#utility.yul\":835:889   */\n      and\n        /* \"#utility.yul\":824:889   */\n      swap1\n      pop\n        /* \"#utility.yul\":769:895   */\n      swap2\n      swap1\n      pop\n      jump\t// out\n        /* \"#utility.yul\":901:997   */\n    tag_104:\n        /* \"#utility.yul\":938:945   */\n      0x00\n        /* \"#utility.yul\":967:991   */\n      tag_136\n        /* \"#utility.yul\":985:990   */\n      dup3\n        /* \"#utility.yul\":967:991   */\n      tag_103\n      jump\t// in\n    tag_136:\n        /* \"#utility.yul\":956:991   */\n      swap1\n      pop\n        /* \"#utility.yul\":901:997   */\n      swap2\n      swap1\n      pop\n      jump\t// out\n        /* \"#utility.yul\":1003:1125   */\n    tag_105:\n        /* \"#utility.yul\":1076:1100   */\n      tag_138\n        /* \"#utility.yul\":1094:1099   */\n      dup2\n        /* \"#utility.yul\":1076:1100   */\n      tag_104\n      jump\t// in\n    tag_138:\n        /* \"#utility.yul\":1069:1074   */\n      dup2\n        /* \"#utility.yul\":1066:1101   */\n      eq\n        /* \"#utility.yul\":1056:1119   */\n      tag_139\n      jumpi\n        /* \"#utility.yul\":1115:1116   */\n      0x00\n        /* \"#utility.yul\":1112:1113   */\n      0x00\n        /* \"#utility.yul\":1105:1117   */\n      revert\n        /* \"#utility.yul\":1056:1119   */\n    tag_139:\n        /* \"#utility.yul\":1003:1125   */\n      pop\n      jump\t// out\n        /* \"#utility.yul\":1131:1270   */\n    tag_106:\n        /* \"#utility.yul\":1177:1182   */\n      0x00\n        /* \"#utility.yul\":1215:1221   */\n      dup2\n        /* \"#utility.yul\":1202:1222   */\n      calldataload\n        /* \"#utility.yul\":1193:1222   */\n      swap1\n      pop\n        /* \"#utility.yul\":1231:1264   */\n      tag_141\n        /* \"#utility.yul\":1258:1263   */\n      dup2\n        /* \"#utility.yul\":1231:1264   */\n      tag_105\n      jump\t// in\n    tag_141:\n        /* \"#utility.yul\":1131:1270   */\n      swap3\n      swap2\n      pop\n      pop\n      jump\t// out\n        /* \"#utility.yul\":1276:1605   */\n    tag_19:\n        /* \"#utility.yul\":1335:1341   */\n      0x00\n        /* \"#utility.yul\":1384:1386   */\n      0x20\n        /* \"#utility.yul\":1372:1381   */\n      dup3\n        /* \"#utility.yul\":1363:1370   */\n      dup5\n        /* \"#utility.yul\":1359:1382   */\n      sub\n        /* \"#utility.yul\":1355:1387   */\n      slt\n        /* \"#utility.yul\":1352:1471   */\n      iszero\n      tag_143\n      jumpi\n        /* \"#utility.yul\":1390:1469   */\n      tag_144\n      tag_101\n      jump\t// in\n    tag_144:\n        /* \"#utility.yul\":1352:1471   */\n    tag_143:\n        /* \"#utility.yul\":1510:1511   */\n      0x00\n        /* \"#utility.yul\":1535:1588   */\n      tag_145\n        /* \"#utility.yul\":1580:1587   */\n      dup5\n        /* \"#utility.yul\":1571:1577   */\n      dup3\n        /* \"#utility.yul\":1560:1569   */\n      dup6\n        /* \"#utility.yul\":1556:1578   */\n      add\n        /* \"#utility.yul\":1535:1588   */\n      tag_106\n      jump\t// in\n    tag_145:\n        /* \"#utility.yul\":1525:1588   */\n      swap2\n      pop\n        /* \"#utility.yul\":1481:1598   */\n      pop\n        /* \"#utility.yul\":1276:1605   */\n      swap3\n      swap2\n      pop\n      pop\n      jump\t// out\n        /* \"#utility.yul\":1611:1729   */\n    tag_107:\n        /* \"#utility.yul\":1698:1722   */\n      tag_147\n        /* \"#utility.yul\":1716:1721   */\n      dup2\n        /* \"#utility.yul\":1698:1722   */\n      tag_104\n      jump\t// in\n    tag_147:\n        /* \"#utility.yul\":1693:1696   */\n      dup3\n        /* \"#utility.yul\":1686:1723   */\n      mstore\n        /* \"#utility.yul\":1611:1729   */\n      pop\n      pop\n      jump\t// out\n        /* \"#utility.yul\":1735:1957   */\n    tag_22:\n        /* \"#utility.yul\":1828:1832   */\n      0x00\n        /* \"#utility.yul\":1866:1868   */\n      0x20\n        /* \"#utility.yul\":1855:1864   */\n      dup3\n        /* \"#utility.yul\":1851:1869   */\n      add\n        /* \"#utility.yul\":1843:1869   */\n      swap1\n      pop\n        /* \"#utility.yul\":1879:1950   */\n      tag_149\n        /* \"#utility.yul\":1947:1948   */\n      0x00\n        /* \"#utility.yul\":1936:1945   */\n      dup4\n        /* \"#utility.yul\":1932:1949   */\n      add\n        /* \"#utility.yul\":1923:1929   */\n      dup5\n        /* \"#utility.yul\":1879:1950   */\n      tag_107\n      jump\t// in\n    tag_149:\n        /* \"#utility.yul\":1735:1957   */\n      swap3\n      swap2\n      pop\n      pop\n      jump\t// out\n        /* \"#utility.yul\":1963:2085   */\n    tag_108:\n        /* \"#utility.yul\":2036:2060   */\n      tag_151\n        /* \"#utility.yul\":2054:2059   */\n      dup2\n        /* \"#utility.yul\":2036:2060   */\n      tag_98\n      jump\t// in\n    tag_151:\n        /* \"#utility.yul\":2029:2034   */\n      dup2\n        /* \"#utility.yul\":2026:2061   */\n      eq\n        /* \"#utility.yul\":2016:2079   */\n      tag_152\n      jumpi\n        /* \"#utility.yul\":2075:2076   */\n      0x00\n        /* \"#utility.yul\":2072:2073   */\n      0x00\n        /* \"#utility.yul\":2065:2077   */\n      revert\n        /* \"#utility.yul\":2016:2079   */\n    tag_152:\n        /* \"#utility.yul\":1963:2085   */\n      pop\n      jump\t// out\n        /* \"#utility.yul\":2091:2230   */\n    tag_109:\n        /* \"#utility.yul\":2137:2142   */\n      0x00\n        /* \"#utility.yul\":2175:2181   */\n      dup2\n        /* \"#utility.yul\":2162:2182   */\n      calldataload\n        /* \"#utility.yul\":2153:2182   */\n      swap1\n      pop\n        /* \"#utility.yul\":2191:2224   */\n      tag_154\n        /* \"#utility.yul\":2218:2223   */\n      dup2\n        /* \"#utility.yul\":2191:2224   */\n      tag_108\n      jump\t// in\n    tag_154:\n        /* \"#utility.yul\":2091:2230   */\n      swap3\n      swap2\n      pop\n      pop\n      jump\t// out\n        /* \"#utility.yul\":2236:2565   */\n    tag_42:\n        /* \"#utility.yul\":2295:2301   */\n      0x00\n        /* \"#utility.yul\":2344:2346   */\n      0x20\n        /* \"#utility.yul\":2332:2341   */\n      dup3\n        /* \"#utility.yul\":2323:2330   */\n      dup5\n        /* \"#utility.yul\":2319:2342   */\n      sub\n        /* \"#utility.yul\":2315:2347   */\n      slt\n        /* \"#utility.yul\":2312:2431   */\n      iszero\n      tag_156\n      jumpi\n        /* \"#utility.yul\":2350:2429   */\n      tag_157\n      tag_101\n      jump\t// in\n    tag_157:\n        /* \"#utility.yul\":2312:2431   */\n    tag_156:\n        /* \"#utility.yul\":2470:2471   */\n      0x00\n        /* \"#utility.yul\":2495:2548   */\n      tag_158\n        /* \"#utility.yul\":2540:2547   */\n      dup5\n        /* \"#utility.yul\":2531:2537   */\n      dup3\n        /* \"#utility.yul\":2520:2529   */\n      dup6\n        /* \"#utility.yul\":2516:2538   */\n      add\n        /* \"#utility.yul\":2495:2548   */\n      tag_109\n      jump\t// in\n    tag_158:\n        /* \"#utility.yul\":2485:2548   */\n      swap2\n      pop\n        /* \"#utility.yul\":2441:2558   */\n      pop\n        /* \"#utility.yul\":2236:2565   */\n      swap3\n      swap2\n      pop\n      pop\n      jump\t// out\n        /* \"#utility.yul\":2571:2740   */\n    tag_110:\n        /* \"#utility.yul\":2655:2666   */\n      0x00\n        /* \"#utility.yul\":2689:2695   */\n      dup3\n        /* \"#utility.yul\":2684:2687   */\n      dup3\n        /* \"#utility.yul\":2677:2696   */\n      mstore\n        /* \"#utility.yul\":2729:2733   */\n      0x20\n        /* \"#utility.yul\":2724:2727   */\n      dup3\n        /* \"#utility.yul\":2720:2734   */\n      add\n        /* \"#utility.yul\":2705:2734   */\n      swap1\n      pop\n        /* \"#utility.yul\":2571:2740   */\n      swap3\n      swap2\n      pop\n      pop\n      jump\t// out\n        /* \"#utility.yul\":2746:2975   */\n    tag_111:\n        /* \"#utility.yul\":2886:2920   */\n      0x546869732066756e6374696f6e2063616e206f6e6c792062652063616c6c6564\n        /* \"#utility.yul\":2882:2883   */\n      0x00\n        /* \"#utility.yul\":2874:2880   */\n      dup3\n        /* \"#utility.yul\":2870:2884   */\n      add\n        /* \"#utility.yul\":2863:2921   */\n      mstore\n        /* \"#utility.yul\":2955:2967   */\n      0x206279206f776e65722e00000000000000000000000000000000000000000000\n        /* \"#utility.yul\":2950:2952   */\n      0x20\n        /* \"#utility.yul\":2942:2948   */\n      dup3\n        /* \"#utility.yul\":2938:2953   */\n      add\n        /* \"#utility.yul\":2931:2968   */\n      mstore\n        /* \"#utility.yul\":2746:2975   */\n      pop\n      jump\t// out\n        /* \"#utility.yul\":2981:3347   */\n    tag_112:\n        /* \"#utility.yul\":3123:3126   */\n      0x00\n        /* \"#utility.yul\":3144:3211   */\n      tag_162\n        /* \"#utility.yul\":3208:3210   */\n      0x2a\n        /* \"#utility.yul\":3203:3206   */\n      dup4\n        /* \"#utility.yul\":3144:3211   */\n      tag_110\n      jump\t// in\n    tag_162:\n        /* \"#utility.yul\":3137:3211   */\n      swap2\n      pop\n        /* \"#utility.yul\":3220:3313   */\n      tag_163\n        /* \"#utility.yul\":3309:3312   */\n      dup3\n        /* \"#utility.yul\":3220:3313   */\n      tag_111\n      jump\t// in\n    tag_163:\n        /* \"#utility.yul\":3338:3340   */\n      0x40\n        /* \"#utility.yul\":3333:3336   */\n      dup3\n        /* \"#utility.yul\":3329:3341   */\n      add\n        /* \"#utility.yul\":3322:3341   */\n      swap1\n      pop\n        /* \"#utility.yul\":2981:3347   */\n      swap2\n      swap1\n      pop\n      jump\t// out\n        /* \"#utility.yul\":3353:3772   */\n    tag_49:\n        /* \"#utility.yul\":3519:3523   */\n      0x00\n        /* \"#utility.yul\":3557:3559   */\n      0x20\n        /* \"#utility.yul\":3546:3555   */\n      dup3\n        /* \"#utility.yul\":3542:3560   */\n      add\n        /* \"#utility.yul\":3534:3560   */\n      swap1\n      pop\n        /* \"#utility.yul\":3606:3615   */\n      dup2\n        /* \"#utility.yul\":3600:3604   */\n      dup2\n        /* \"#utility.yul\":3596:3616   */\n      sub\n        /* \"#utility.yul\":3592:3593   */\n      0x00\n        /* \"#utility.yul\":3581:3590   */\n      dup4\n        /* \"#utility.yul\":3577:3594   */\n      add\n        /* \"#utility.yul\":3570:3617   */\n      mstore\n        /* \"#utility.yul\":3634:3765   */\n      tag_165\n        /* \"#utility.yul\":3760:3764   */\n      dup2\n        /* \"#utility.yul\":3634:3765   */\n      tag_112\n      jump\t// in\n    tag_165:\n        /* \"#utility.yul\":3626:3765   */\n      swap1\n      pop\n        /* \"#utility.yul\":3353:3772   */\n      swap2\n      swap1\n      pop\n      jump\t// out\n        /* \"#utility.yul\":3778:3951   */\n    tag_113:\n        /* \"#utility.yul\":3918:3943   */\n      0x546865206164647265737320697320696e76616c69642e000000000000000000\n        /* \"#utility.yul\":3914:3915   */\n      0x00\n        /* \"#utility.yul\":3906:3912   */\n      dup3\n        /* \"#utility.yul\":3902:3916   */\n      add\n        /* \"#utility.yul\":3895:3944   */\n      mstore\n        /* \"#utility.yul\":3778:3951   */\n      pop\n      jump\t// out\n        /* \"#utility.yul\":3957:4323   */\n    tag_114:\n        /* \"#utility.yul\":4099:4102   */\n      0x00\n        /* \"#utility.yul\":4120:4187   */\n      tag_168\n        /* \"#utility.yul\":4184:4186   */\n      0x17\n        /* \"#utility.yul\":4179:4182   */\n      dup4\n        /* \"#utility.yul\":4120:4187   */\n      tag_110\n      jump\t// in\n    tag_168:\n        /* \"#utility.yul\":4113:4187   */\n      swap2\n      pop\n        /* \"#utility.yul\":4196:4289   */\n      tag_169\n        /* \"#utility.yul\":4285:4288   */\n      dup3\n        /* \"#utility.yul\":4196:4289   */\n      tag_113\n      jump\t// in\n    tag_169:\n        /* \"#utility.yul\":4314:4316   */\n      0x20\n        /* \"#utility.yul\":4309:4312   */\n      dup3\n        /* \"#utility.yul\":4305:4317   */\n      add\n        /* \"#utility.yul\":4298:4317   */\n      swap1\n      pop\n        /* \"#utility.yul\":3957:4323   */\n      swap2\n      swap1\n      pop\n      jump\t// out\n        /* \"#utility.yul\":4329:4748   */\n    tag_53:\n        /* \"#utility.yul\":4495:4499   */\n      0x00\n        /* \"#utility.yul\":4533:4535   */\n      0x20\n        /* \"#utility.yul\":4522:4531   */\n      dup3\n        /* \"#utility.yul\":4518:4536   */\n      add\n        /* \"#utility.yul\":4510:4536   */\n      swap1\n      pop\n        /* \"#utility.yul\":4582:4591   */\n      dup2\n        /* \"#utility.yul\":4576:4580   */\n      dup2\n        /* \"#utility.yul\":4572:4592   */\n      sub\n        /* \"#utility.yul\":4568:4569   */\n      0x00\n        /* \"#utility.yul\":4557:4566   */\n      dup4\n        /* \"#utility.yul\":4553:4570   */\n      add\n        /* \"#utility.yul\":4546:4593   */\n      mstore\n        /* \"#utility.yul\":4610:4741   */\n      tag_171\n        /* \"#utility.yul\":4736:4740   */\n      dup2\n        /* \"#utility.yul\":4610:4741   */\n      tag_114\n      jump\t// in\n    tag_171:\n        /* \"#utility.yul\":4602:4741   */\n      swap1\n      pop\n        /* \"#utility.yul\":4329:4748   */\n      swap2\n      swap1\n      pop\n      jump\t// out\n        /* \"#utility.yul\":4754:4976   */\n    tag_115:\n        /* \"#utility.yul\":4894:4928   */\n      0x536f7272792c20796f752068617665206e6f20636f696e7320746f2072656675\n        /* \"#utility.yul\":4890:4891   */\n      0x00\n        /* \"#utility.yul\":4882:4888   */\n      dup3\n        /* \"#utility.yul\":4878:4892   */\n      add\n        /* \"#utility.yul\":4871:4929   */\n      mstore\n        /* \"#utility.yul\":4963:4968   */\n      0x6e642e0000000000000000000000000000000000000000000000000000000000\n        /* \"#utility.yul\":4958:4960   */\n      0x20\n        /* \"#utility.yul\":4950:4956   */\n      dup3\n        /* \"#utility.yul\":4946:4961   */\n      add\n        /* \"#utility.yul\":4939:4969   */\n      mstore\n        /* \"#utility.yul\":4754:4976   */\n      pop\n      jump\t// out\n        /* \"#utility.yul\":4982:5348   */\n    tag_116:\n        /* \"#utility.yul\":5124:5127   */\n      0x00\n        /* \"#utility.yul\":5145:5212   */\n      tag_174\n        /* \"#utility.yul\":5209:5211   */\n      0x23\n        /* \"#utility.yul\":5204:5207   */\n      dup4\n        /* \"#utility.yul\":5145:5212   */\n      tag_110\n      jump\t// in\n    tag_174:\n        /* \"#utility.yul\":5138:5212   */\n      swap2\n      pop\n        /* \"#utility.yul\":5221:5314   */\n      tag_175\n        /* \"#utility.yul\":5310:5313   */\n      dup3\n        /* \"#utility.yul\":5221:5314   */\n      tag_115\n      jump\t// in\n    tag_175:\n        /* \"#utility.yul\":5339:5341   */\n      0x40\n        /* \"#utility.yul\":5334:5337   */\n      dup3\n        /* \"#utility.yul\":5330:5342   */\n      add\n        /* \"#utility.yul\":5323:5342   */\n      swap1\n      pop\n        /* \"#utility.yul\":4982:5348   */\n      swap2\n      swap1\n      pop\n      jump\t// out\n        /* \"#utility.yul\":5354:5773   */\n    tag_58:\n        /* \"#utility.yul\":5520:5524   */\n      0x00\n        /* \"#utility.yul\":5558:5560   */\n      0x20\n        /* \"#utility.yul\":5547:5556   */\n      dup3\n        /* \"#utility.yul\":5543:5561   */\n      add\n        /* \"#utility.yul\":5535:5561   */\n      swap1\n      pop\n        /* \"#utility.yul\":5607:5616   */\n      dup2\n        /* \"#utility.yul\":5601:5605   */\n      dup2\n        /* \"#utility.yul\":5597:5617   */\n      sub\n        /* \"#utility.yul\":5593:5594   */\n      0x00\n        /* \"#utility.yul\":5582:5591   */\n      dup4\n        /* \"#utility.yul\":5578:5595   */\n      add\n        /* \"#utility.yul\":5571:5618   */\n      mstore\n        /* \"#utility.yul\":5635:5766   */\n      tag_177\n        /* \"#utility.yul\":5761:5765   */\n      dup2\n        /* \"#utility.yul\":5635:5766   */\n      tag_116\n      jump\t// in\n    tag_177:\n        /* \"#utility.yul\":5627:5766   */\n      swap1\n      pop\n        /* \"#utility.yul\":5354:5773   */\n      swap2\n      swap1\n      pop\n      jump\t// out\n        /* \"#utility.yul\":5779:5926   */\n    tag_117:\n        /* \"#utility.yul\":5880:5891   */\n      0x00\n        /* \"#utility.yul\":5917:5920   */\n      dup2\n        /* \"#utility.yul\":5902:5920   */\n      swap1\n      pop\n        /* \"#utility.yul\":5779:5926   */\n      swap3\n      swap2\n      pop\n      pop\n      jump\t// out\n        /* \"#utility.yul\":5932:6046   */\n    tag_118:\n      pop\n      jump\t// out\n        /* \"#utility.yul\":6052:6450   */\n    tag_119:\n        /* \"#utility.yul\":6211:6214   */\n      0x00\n        /* \"#utility.yul\":6232:6315   */\n      tag_181\n        /* \"#utility.yul\":6313:6314   */\n      0x00\n        /* \"#utility.yul\":6308:6311   */\n      dup4\n        /* \"#utility.yul\":6232:6315   */\n      tag_117\n      jump\t// in\n    tag_181:\n        /* \"#utility.yul\":6225:6315   */\n      swap2\n      pop\n        /* \"#utility.yul\":6324:6417   */\n      tag_182\n        /* \"#utility.yul\":6413:6416   */\n      dup3\n        /* \"#utility.yul\":6324:6417   */\n      tag_118\n      jump\t// in\n    tag_182:\n        /* \"#utility.yul\":6442:6443   */\n      0x00\n        /* \"#utility.yul\":6437:6440   */\n      dup3\n        /* \"#utility.yul\":6433:6444   */\n      add\n        /* \"#utility.yul\":6426:6444   */\n      swap1\n      pop\n        /* \"#utility.yul\":6052:6450   */\n      swap2\n      swap1\n      pop\n      jump\t// out\n        /* \"#utility.yul\":6456:6835   */\n    tag_60:\n        /* \"#utility.yul\":6640:6643   */\n      0x00\n        /* \"#utility.yul\":6662:6809   */\n      tag_184\n        /* \"#utility.yul\":6805:6808   */\n      dup3\n        /* \"#utility.yul\":6662:6809   */\n      tag_119\n      jump\t// in\n    tag_184:\n        /* \"#utility.yul\":6655:6809   */\n      swap2\n      pop\n        /* \"#utility.yul\":6826:6829   */\n      dup2\n        /* \"#utility.yul\":6819:6829   */\n      swap1\n      pop\n        /* \"#utility.yul\":6456:6835   */\n      swap2\n      swap1\n      pop\n      jump\t// out\n        /* \"#utility.yul\":6841:7007   */\n    tag_120:\n        /* \"#utility.yul\":6981:6999   */\n      0x526566756e64207478206661696c656400000000000000000000000000000000\n        /* \"#utility.yul\":6977:6978   */\n      0x00\n        /* \"#utility.yul\":6969:6975   */\n      dup3\n        /* \"#utility.yul\":6965:6979   */\n      add\n        /* \"#utility.yul\":6958:7000   */\n      mstore\n        /* \"#utility.yul\":6841:7007   */\n      pop\n      jump\t// out\n        /* \"#utility.yul\":7013:7379   */\n    tag_121:\n        /* \"#utility.yul\":7155:7158   */\n      0x00\n        /* \"#utility.yul\":7176:7243   */\n      tag_187\n        /* \"#utility.yul\":7240:7242   */\n      0x10\n        /* \"#utility.yul\":7235:7238   */\n      dup4\n        /* \"#utility.yul\":7176:7243   */\n      tag_110\n      jump\t// in\n    tag_187:\n        /* \"#utility.yul\":7169:7243   */\n      swap2\n      pop\n        /* \"#utility.yul\":7252:7345   */\n      tag_188\n        /* \"#utility.yul\":7341:7344   */\n      dup3\n        /* \"#utility.yul\":7252:7345   */\n      tag_120\n      jump\t// in\n    tag_188:\n        /* \"#utility.yul\":7370:7372   */\n      0x20\n        /* \"#utility.yul\":7365:7368   */\n      dup3\n        /* \"#utility.yul\":7361:7373   */\n      add\n        /* \"#utility.yul\":7354:7373   */\n      swap1\n      pop\n        /* \"#utility.yul\":7013:7379   */\n      swap2\n      swap1\n      pop\n      jump\t// out\n        /* \"#utility.yul\":7385:7804   */\n    tag_66:\n        /* \"#utility.yul\":7551:7555   */\n      0x00\n        /* \"#utility.yul\":7589:7591   */\n      0x20\n        /* \"#utility.yul\":7578:7587   */\n      dup3\n        /* \"#utility.yul\":7574:7592   */\n      add\n        /* \"#utility.yul\":7566:7592   */\n      swap1\n      pop\n        /* \"#utility.yul\":7638:7647   */\n      dup2\n        /* \"#utility.yul\":7632:7636   */\n      dup2\n        /* \"#utility.yul\":7628:7648   */\n      sub\n        /* \"#utility.yul\":7624:7625   */\n      0x00\n        /* \"#utility.yul\":7613:7622   */\n      dup4\n        /* \"#utility.yul\":7609:7626   */\n      add\n        /* \"#utility.yul\":7602:7649   */\n      mstore\n        /* \"#utility.yul\":7666:7797   */\n      tag_190\n        /* \"#utility.yul\":7792:7796   */\n      dup2\n        /* \"#utility.yul\":7666:7797   */\n      tag_121\n      jump\t// in\n    tag_190:\n        /* \"#utility.yul\":7658:7797   */\n      swap1\n      pop\n        /* \"#utility.yul\":7385:7804   */\n      swap2\n      swap1\n      pop\n      jump\t// out\n        /* \"#utility.yul\":7810:7953   */\n    tag_122:\n        /* \"#utility.yul\":7867:7872   */\n      0x00\n        /* \"#utility.yul\":7898:7904   */\n      dup2\n        /* \"#utility.yul\":7892:7905   */\n      mload\n        /* \"#utility.yul\":7883:7905   */\n      swap1\n      pop\n        /* \"#utility.yul\":7914:7947   */\n      tag_192\n        /* \"#utility.yul\":7941:7946   */\n      dup2\n        /* \"#utility.yul\":7914:7947   */\n      tag_108\n      jump\t// in\n    tag_192:\n        /* \"#utility.yul\":7810:7953   */\n      swap3\n      swap2\n      pop\n      pop\n      jump\t// out\n        /* \"#utility.yul\":7959:8310   */\n    tag_74:\n        /* \"#utility.yul\":8029:8035   */\n      0x00\n        /* \"#utility.yul\":8078:8080   */\n      0x20\n        /* \"#utility.yul\":8066:8075   */\n      dup3\n        /* \"#utility.yul\":8057:8064   */\n      dup5\n        /* \"#utility.yul\":8053:8076   */\n      sub\n        /* \"#utility.yul\":8049:8081   */\n      slt\n        /* \"#utility.yul\":8046:8165   */\n      iszero\n      tag_194\n      jumpi\n        /* \"#utility.yul\":8084:8163   */\n      tag_195\n      tag_101\n      jump\t// in\n    tag_195:\n        /* \"#utility.yul\":8046:8165   */\n    tag_194:\n        /* \"#utility.yul\":8204:8205   */\n      0x00\n        /* \"#utility.yul\":8229:8293   */\n      tag_196\n        /* \"#utility.yul\":8285:8292   */\n      dup5\n        /* \"#utility.yul\":8276:8282   */\n      dup3\n        /* \"#utility.yul\":8265:8274   */\n      dup6\n        /* \"#utility.yul\":8261:8283   */\n      add\n        /* \"#utility.yul\":8229:8293   */\n      tag_122\n      jump\t// in\n    tag_196:\n        /* \"#utility.yul\":8219:8293   */\n      swap2\n      pop\n        /* \"#utility.yul\":8175:8303   */\n      pop\n        /* \"#utility.yul\":7959:8310   */\n      swap3\n      swap2\n      pop\n      pop\n      jump\t// out\n        /* \"#utility.yul\":8316:8496   */\n    tag_87:\n        /* \"#utility.yul\":8364:8441   */\n      0x4e487b7100000000000000000000000000000000000000000000000000000000\n        /* \"#utility.yul\":8361:8362   */\n      0x00\n        /* \"#utility.yul\":8354:8442   */\n      mstore\n        /* \"#utility.yul\":8461:8465   */\n      0x32\n        /* \"#utility.yul\":8458:8459   */\n      0x04\n        /* \"#utility.yul\":8451:8466   */\n      mstore\n        /* \"#utility.yul\":8485:8489   */\n      0x24\n        /* \"#utility.yul\":8482:8483   */\n      0x00\n        /* \"#utility.yul\":8475:8490   */\n      revert\n        /* \"#utility.yul\":8502:8669   */\n    tag_123:\n        /* \"#utility.yul\":8642:8661   */\n      0x526566756e64207478206661696c656420000000000000000000000000000000\n        /* \"#utility.yul\":8638:8639   */\n      0x00\n        /* \"#utility.yul\":8630:8636   */\n      dup3\n        /* \"#utility.yul\":8626:8640   */\n      add\n        /* \"#utility.yul\":8619:8662   */\n      mstore\n        /* \"#utility.yul\":8502:8669   */\n      pop\n      jump\t// out\n        /* \"#utility.yul\":8675:9041   */\n    tag_124:\n        /* \"#utility.yul\":8817:8820   */\n      0x00\n        /* \"#utility.yul\":8838:8905   */\n      tag_200\n        /* \"#utility.yul\":8902:8904   */\n      0x11\n        /* \"#utility.yul\":8897:8900   */\n      dup4\n        /* \"#utility.yul\":8838:8905   */\n      tag_110\n      jump\t// in\n    tag_200:\n        /* \"#utility.yul\":8831:8905   */\n      swap2\n      pop\n        /* \"#utility.yul\":8914:9007   */\n      tag_201\n        /* \"#utility.yul\":9003:9006   */\n      dup3\n        /* \"#utility.yul\":8914:9007   */\n      tag_123\n      jump\t// in\n    tag_201:\n        /* \"#utility.yul\":9032:9034   */\n      0x20\n        /* \"#utility.yul\":9027:9030   */\n      dup3\n        /* \"#utility.yul\":9023:9035   */\n      add\n        /* \"#utility.yul\":9016:9035   */\n      swap1\n      pop\n        /* \"#utility.yul\":8675:9041   */\n      swap2\n      swap1\n      pop\n      jump\t// out\n        /* \"#utility.yul\":9047:9466   */\n    tag_95:\n        /* \"#utility.yul\":9213:9217   */\n      0x00\n        /* \"#utility.yul\":9251:9253   */\n      0x20\n        /* \"#utility.yul\":9240:9249   */\n      dup3\n        /* \"#utility.yul\":9236:9254   */\n      add\n        /* \"#utility.yul\":9228:9254   */\n      swap1\n      pop\n        /* \"#utility.yul\":9300:9309   */\n      dup2\n        /* \"#utility.yul\":9294:9298   */\n      dup2\n        /* \"#utility.yul\":9290:9310   */\n      sub\n        /* \"#utility.yul\":9286:9287   */\n      0x00\n        /* \"#utility.yul\":9275:9284   */\n      dup4\n        /* \"#utility.yul\":9271:9288   */\n      add\n        /* \"#utility.yul\":9264:9311   */\n      mstore\n        /* \"#utility.yul\":9328:9459   */\n      tag_203\n        /* \"#utility.yul\":9454:9458   */\n      dup2\n        /* \"#utility.yul\":9328:9459   */\n      tag_124\n      jump\t// in\n    tag_203:\n        /* \"#utility.yul\":9320:9459   */\n      swap1\n      pop\n        /* \"#utility.yul\":9047:9466   */\n      swap2\n      swap1\n      pop\n      jump\t// out\n\n    auxdata: 0xa264697066735822122051bbc6d431f8e4b941eafda79bd256b013781fd764f92fa4758dd39cb5fceb8064736f6c634300081c0033\n}\n",
				"bytecode": {
					"linkReferences": {},
					"object": "6080604052348015600e575f5ffd5b503360025f6101000a81548173ffffffffffffffffffffffffffffffffffffffff021916908373ffffffffffffffffffffffffffffffffffffffff160217905550610d2b8061005c5f395ff3fe60806040526004361061007a575f3560e01c8063b60d42881161004d578063b60d428814610110578063b723ae751461011a578063c6da75a614610130578063dc0d3dff1461016c5761007a565b806312065fe01461007e57806313af4035146100a8578063590e1ae3146100e45780638edd6eb6146100fa575b5f5ffd5b348015610089575f5ffd5b506100926101a8565b60405161009f91906108c5565b60405180910390f35b3480156100b3575f5ffd5b506100ce60048036038101906100c9919061093c565b6101af565b6040516100db9190610976565b60405180910390f35b3480156100ef575f5ffd5b506100f8610318565b005b348015610105575f5ffd5b5061010e6104c3565b005b61011861062e565b005b348015610125575f5ffd5b5061012e6106d1565b005b34801561013b575f5ffd5b506101566004803603810190610151919061093c565b61085e565b60405161016391906108c5565b60405180910390f35b348015610177575f5ffd5b50610192600480360381019061018d91906109b9565b610872565b60405161019f9190610976565b60405180910390f35b5f47905090565b5f60025f9054906101000a900473ffffffffffffffffffffffffffffffffffffffff1673ffffffffffffffffffffffffffffffffffffffff163373ffffffffffffffffffffffffffffffffffffffff161461023f576040517f08c379a000000000000000000000000000000000000000000000000000000000815260040161023690610a64565b60405180910390fd5b818073ffffffffffffffffffffffffffffffffffffffff165f73ffffffffffffffffffffffffffffffffffffffff16036102ae576040517f08c379a00000000000000000000000000000000000000000000000000000000081526004016102a590610acc565b60405180910390fd5b60025f9054906101000a900473ffffffffffffffffffffffffffffffffffffffff1691508260025f6101000a81548173ffffffffffffffffffffffffffffffffffffffff021916908373ffffffffffffffffffffffffffffffffffffffff16021790555050919050565b5f5f5f3373ffffffffffffffffffffffffffffffffffffffff1673ffffffffffffffffffffffffffffffffffffffff1681526020019081526020015f205403610396576040517f08c379a000000000000000000000000000000000000000000000000000000000815260040161038d90610b5a565b60405180910390fd5b5f5f90503373ffffffffffffffffffffffffffffffffffffffff165f5f3373ffffffffffffffffffffffffffffffffffffffff1673ffffffffffffffffffffffffffffffffffffffff1681526020019081526020015f20546040516103fa90610ba5565b5f6040518083038185875af1925050503d805f8114610434576040519150601f19603f3d011682016040523d82523d5f602084013e610439565b606091505b5050809150508061047f576040517f08c379a000000000000000000000000000000000000000000000000000000000815260040161047690610c03565b60405180910390fd5b5f5f5f3373ffffffffffffffffffffffffffffffffffffffff1673ffffffffffffffffffffffffffffffffffffffff1681526020019081526020015f208190555050565b60025f9054906101000a900473ffffffffffffffffffffffffffffffffffffffff1673ffffffffffffffffffffffffffffffffffffffff163373ffffffffffffffffffffffffffffffffffffffff1614610552576040517f08c379a000000000000000000000000000000000000000000000000000000000815260040161054990610a64565b60405180910390fd5b5f5f90503373ffffffffffffffffffffffffffffffffffffffff163073ffffffffffffffffffffffffffffffffffffffff166312065fe06040518163ffffffff1660e01b8152600401602060405180830381865afa1580156105b6573d5f5f3e3d5ffd5b505050506040513d601f19601f820116820180604052508101906105da9190610c35565b6040516105e690610ba5565b5f6040518083038185875af1925050503d805f8114610620576040519150601f19603f3d011682016040523d82523d5f602084013e610625565b606091505b50508091505050565b600133908060018154018082558091505060019003905f5260205f20015f9091909190916101000a81548173ffffffffffffffffffffffffffffffffffffffff021916908373ffffffffffffffffffffffffffffffffffffffff160217905550345f5f3373ffffffffffffffffffffffffffffffffffffffff1673ffffffffffffffffffffffffffffffffffffffff1681526020019081526020015f2081905550565b5f5f90505b60018054905081101561085b575f600182815481106106f8576106f7610c60565b5b905f5260205f20015f9054906101000a900473ffffffffffffffffffffffffffffffffffffffff1690505f5f90508173ffffffffffffffffffffffffffffffffffffffff165f5f8473ffffffffffffffffffffffffffffffffffffffff1673ffffffffffffffffffffffffffffffffffffffff1681526020019081526020015f205460405161078690610ba5565b5f6040518083038185875af1925050503d805f81146107c0576040519150601f19603f3d011682016040523d82523d5f602084013e6107c5565b606091505b5050809150508061080b576040517f08c379a000000000000000000000000000000000000000000000000000000000815260040161080290610cd7565b60405180910390fd5b5f5f5f8473ffffffffffffffffffffffffffffffffffffffff1673ffffffffffffffffffffffffffffffffffffffff1681526020019081526020015f2081905550505080806001019150506106d6565b50565b5f602052805f5260405f205f915090505481565b60018181548110610881575f80fd5b905f5260205f20015f915054906101000a900473ffffffffffffffffffffffffffffffffffffffff1681565b5f819050919050565b6108bf816108ad565b82525050565b5f6020820190506108d85f8301846108b6565b92915050565b5f5ffd5b5f73ffffffffffffffffffffffffffffffffffffffff82169050919050565b5f61090b826108e2565b9050919050565b61091b81610901565b8114610925575f5ffd5b50565b5f8135905061093681610912565b92915050565b5f60208284031215610951576109506108de565b5b5f61095e84828501610928565b91505092915050565b61097081610901565b82525050565b5f6020820190506109895f830184610967565b92915050565b610998816108ad565b81146109a2575f5ffd5b50565b5f813590506109b38161098f565b92915050565b5f602082840312156109ce576109cd6108de565b5b5f6109db848285016109a5565b91505092915050565b5f82825260208201905092915050565b7f546869732066756e6374696f6e2063616e206f6e6c792062652063616c6c65645f8201527f206279206f776e65722e00000000000000000000000000000000000000000000602082015250565b5f610a4e602a836109e4565b9150610a59826109f4565b604082019050919050565b5f6020820190508181035f830152610a7b81610a42565b9050919050565b7f546865206164647265737320697320696e76616c69642e0000000000000000005f82015250565b5f610ab66017836109e4565b9150610ac182610a82565b602082019050919050565b5f6020820190508181035f830152610ae381610aaa565b9050919050565b7f536f7272792c20796f752068617665206e6f20636f696e7320746f20726566755f8201527f6e642e0000000000000000000000000000000000000000000000000000000000602082015250565b5f610b446023836109e4565b9150610b4f82610aea565b604082019050919050565b5f6020820190508181035f830152610b7181610b38565b9050919050565b5f81905092915050565b50565b5f610b905f83610b78565b9150610b9b82610b82565b5f82019050919050565b5f610baf82610b85565b9150819050919050565b7f526566756e64207478206661696c6564000000000000000000000000000000005f82015250565b5f610bed6010836109e4565b9150610bf882610bb9565b602082019050919050565b5f6020820190508181035f830152610c1a81610be1565b9050919050565b5f81519050610c2f8161098f565b92915050565b5f60208284031215610c4a57610c496108de565b5b5f610c5784828501610c21565b91505092915050565b7f4e487b71000000000000000000000000000000000000000000000000000000005f52603260045260245ffd5b7f526566756e64207478206661696c6564200000000000000000000000000000005f82015250565b5f610cc16011836109e4565b9150610ccc82610c8d565b602082019050919050565b5f6020820190508181035f830152610cee81610cb5565b905091905056fea264697066735822122051bbc6d431f8e4b941eafda79bd256b013781fd764f92fa4758dd39cb5fceb8064736f6c634300081c0033",
					"opcodes": "PUSH1 0x80 PUSH1 0x40 MSTORE CALLVALUE DUP1 ISZERO PUSH1 0xE JUMPI PUSH0 PUSH0 REVERT JUMPDEST POP CALLER PUSH1 0x2 PUSH0 PUSH2 0x100 EXP DUP2 SLOAD DUP2 PUSH20 0xFFFFFFFFFFFFFFFFFFFFFFFFFFFFFFFFFFFFFFFF MUL NOT AND SWAP1 DUP4 PUSH20 0xFFFFFFFFFFFFFFFFFFFFFFFFFFFFFFFFFFFFFFFF AND MUL OR SWAP1 SSTORE POP PUSH2 0xD2B DUP1 PUSH2 0x5C PUSH0 CODECOPY PUSH0 RETURN INVALID PUSH1 0x80 PUSH1 0x40 MSTORE PUSH1 0x4 CALLDATASIZE LT PUSH2 0x7A JUMPI PUSH0 CALLDATALOAD PUSH1 0xE0 SHR DUP1 PUSH4 0xB60D4288 GT PUSH2 0x4D JUMPI DUP1 PUSH4 0xB60D4288 EQ PUSH2 0x110 JUMPI DUP1 PUSH4 0xB723AE75 EQ PUSH2 0x11A JUMPI DUP1 PUSH4 0xC6DA75A6 EQ PUSH2 0x130 JUMPI DUP1 PUSH4 0xDC0D3DFF EQ PUSH2 0x16C JUMPI PUSH2 0x7A JUMP JUMPDEST DUP1 PUSH4 0x12065FE0 EQ PUSH2 0x7E JUMPI DUP1 PUSH4 0x13AF4035 EQ PUSH2 0xA8 JUMPI DUP1 PUSH4 0x590E1AE3 EQ PUSH2 0xE4 JUMPI DUP1 PUSH4 0x8EDD6EB6 EQ PUSH2 0xFA JUMPI JUMPDEST PUSH0 PUSH0 REVERT JUMPDEST CALLVALUE DUP1 ISZERO PUSH2 0x89 JUMPI PUSH0 PUSH0 REVERT JUMPDEST POP PUSH2 0x92 PUSH2 0x1A8 JUMP JUMPDEST PUSH1 0x40 MLOAD PUSH2 0x9F SWAP2 SWAP1 PUSH2 0x8C5 JUMP JUMPDEST PUSH1 0x40 MLOAD DUP1 SWAP2 SUB SWAP1 RETURN JUMPDEST CALLVALUE DUP1 ISZERO PUSH2 0xB3 JUMPI PUSH0 PUSH0 REVERT JUMPDEST POP PUSH2 0xCE PUSH1 0x4 DUP1 CALLDATASIZE SUB DUP2 ADD SWAP1 PUSH2 0xC9 SWAP2 SWAP1 PUSH2 0x93C JUMP JUMPDEST PUSH2 0x1AF JUMP JUMPDEST PUSH1 0x40 MLOAD PUSH2 0xDB SWAP2 SWAP1 PUSH2 0x976 JUMP JUMPDEST PUSH1 0x40 MLOAD DUP1 SWAP2 SUB SWAP1 RETURN JUMPDEST CALLVALUE DUP1 ISZERO PUSH2 0xEF JUMPI PUSH0 PUSH0 REVERT JUMPDEST POP PUSH2 0xF8 PUSH2 0x318 JUMP JUMPDEST STOP JUMPDEST CALLVALUE DUP1 ISZERO PUSH2 0x105 JUMPI PUSH0 PUSH0 REVERT JUMPDEST POP PUSH2 0x10E PUSH2 0x4C3 JUMP JUMPDEST STOP JUMPDEST PUSH2 0x118 PUSH2 0x62E JUMP JUMPDEST STOP JUMPDEST CALLVALUE DUP1 ISZERO PUSH2 0x125 JUMPI PUSH0 PUSH0 REVERT JUMPDEST POP PUSH2 0x12E PUSH2 0x6D1 JUMP JUMPDEST STOP JUMPDEST CALLVALUE DUP1 ISZERO PUSH2 0x13B JUMPI PUSH0 PUSH0 REVERT JUMPDEST POP PUSH2 0x156 PUSH1 0x4 DUP1 CALLDATASIZE SUB DUP2 ADD SWAP1 PUSH2 0x151 SWAP2 SWAP1 PUSH2 0x93C JUMP JUMPDEST PUSH2 0x85E JUMP JUMPDEST PUSH1 0x40 MLOAD PUSH2 0x163 SWAP2 SWAP1 PUSH2 0x8C5 JUMP JUMPDEST PUSH1 0x40 MLOAD DUP1 SWAP2 SUB SWAP1 RETURN JUMPDEST CALLVALUE DUP1 ISZERO PUSH2 0x177 JUMPI PUSH0 PUSH0 REVERT JUMPDEST POP PUSH2 0x192 PUSH1 0x4 DUP1 CALLDATASIZE SUB DUP2 ADD SWAP1 PUSH2 0x18D SWAP2 SWAP1 PUSH2 0x9B9 JUMP JUMPDEST PUSH2 0x872 JUMP JUMPDEST PUSH1 0x40 MLOAD PUSH2 0x19F SWAP2 SWAP1 PUSH2 0x976 JUMP JUMPDEST PUSH1 0x40 MLOAD DUP1 SWAP2 SUB SWAP1 RETURN JUMPDEST PUSH0 SELFBALANCE SWAP1 POP SWAP1 JUMP JUMPDEST PUSH0 PUSH1 0x2 PUSH0 SWAP1 SLOAD SWAP1 PUSH2 0x100 EXP SWAP1 DIV PUSH20 0xFFFFFFFFFFFFFFFFFFFFFFFFFFFFFFFFFFFFFFFF AND PUSH20 0xFFFFFFFFFFFFFFFFFFFFFFFFFFFFFFFFFFFFFFFF AND CALLER PUSH20 0xFFFFFFFFFFFFFFFFFFFFFFFFFFFFFFFFFFFFFFFF AND EQ PUSH2 0x23F JUMPI PUSH1 0x40 MLOAD PUSH32 0x8C379A000000000000000000000000000000000000000000000000000000000 DUP2 MSTORE PUSH1 0x4 ADD PUSH2 0x236 SWAP1 PUSH2 0xA64 JUMP JUMPDEST PUSH1 0x40 MLOAD DUP1 SWAP2 SUB SWAP1 REVERT JUMPDEST DUP2 DUP1 PUSH20 0xFFFFFFFFFFFFFFFFFFFFFFFFFFFFFFFFFFFFFFFF AND PUSH0 PUSH20 0xFFFFFFFFFFFFFFFFFFFFFFFFFFFFFFFFFFFFFFFF AND SUB PUSH2 0x2AE JUMPI PUSH1 0x40 MLOAD PUSH32 0x8C379A000000000000000000000000000000000000000000000000000000000 DUP2 MSTORE PUSH1 0x4 ADD PUSH2 0x2A5 SWAP1 PUSH2 0xACC JUMP JUMPDEST PUSH1 0x40 MLOAD DUP1 SWAP2 SUB SWAP1 REVERT JUMPDEST PUSH1 0x2 PUSH0 SWAP1 SLOAD SWAP1 PUSH2 0x100 EXP SWAP1 DIV PUSH20 0xFFFFFFFFFFFFFFFFFFFFFFFFFFFFFFFFFFFFFFFF AND SWAP2 POP DUP3 PUSH1 0x2 PUSH0 PUSH2 0x100 EXP DUP2 SLOAD DUP2 PUSH20 0xFFFFFFFFFFFFFFFFFFFFFFFFFFFFFFFFFFFFFFFF MUL NOT AND SWAP1 DUP4 PUSH20 0xFFFFFFFFFFFFFFFFFFFFFFFFFFFFFFFFFFFFFFFF AND MUL OR SWAP1 SSTORE POP POP SWAP2 SWAP1 POP JUMP JUMPDEST PUSH0 PUSH0 PUSH0 CALLER PUSH20 0xFFFFFFFFFFFFFFFFFFFFFFFFFFFFFFFFFFFFFFFF AND PUSH20 0xFFFFFFFFFFFFFFFFFFFFFFFFFFFFFFFFFFFFFFFF AND DUP2 MSTORE PUSH1 0x20 ADD SWAP1 DUP2 MSTORE PUSH1 0x20 ADD PUSH0 KECCAK256 SLOAD SUB PUSH2 0x396 JUMPI PUSH1 0x40 MLOAD PUSH32 0x8C379A000000000000000000000000000000000000000000000000000000000 DUP2 MSTORE PUSH1 0x4 ADD PUSH2 0x38D SWAP1 PUSH2 0xB5A JUMP JUMPDEST PUSH1 0x40 MLOAD DUP1 SWAP2 SUB SWAP1 REVERT JUMPDEST PUSH0 PUSH0 SWAP1 POP CALLER PUSH20 0xFFFFFFFFFFFFFFFFFFFFFFFFFFFFFFFFFFFFFFFF AND PUSH0 PUSH0 CALLER PUSH20 0xFFFFFFFFFFFFFFFFFFFFFFFFFFFFFFFFFFFFFFFF AND PUSH20 0xFFFFFFFFFFFFFFFFFFFFFFFFFFFFFFFFFFFFFFFF AND DUP2 MSTORE PUSH1 0x20 ADD SWAP1 DUP2 MSTORE PUSH1 0x20 ADD PUSH0 KECCAK256 SLOAD PUSH1 0x40 MLOAD PUSH2 0x3FA SWAP1 PUSH2 0xBA5 JUMP JUMPDEST PUSH0 PUSH1 0x40 MLOAD DUP1 DUP4 SUB DUP2 DUP6 DUP8 GAS CALL SWAP3 POP POP POP RETURNDATASIZE DUP1 PUSH0 DUP2 EQ PUSH2 0x434 JUMPI PUSH1 0x40 MLOAD SWAP2 POP PUSH1 0x1F NOT PUSH1 0x3F RETURNDATASIZE ADD AND DUP3 ADD PUSH1 0x40 MSTORE RETURNDATASIZE DUP3 MSTORE RETURNDATASIZE PUSH0 PUSH1 0x20 DUP5 ADD RETURNDATACOPY PUSH2 0x439 JUMP JUMPDEST PUSH1 0x60 SWAP2 POP JUMPDEST POP POP DUP1 SWAP2 POP POP DUP1 PUSH2 0x47F JUMPI PUSH1 0x40 MLOAD PUSH32 0x8C379A000000000000000000000000000000000000000000000000000000000 DUP2 MSTORE PUSH1 0x4 ADD PUSH2 0x476 SWAP1 PUSH2 0xC03 JUMP JUMPDEST PUSH1 0x40 MLOAD DUP1 SWAP2 SUB SWAP1 REVERT JUMPDEST PUSH0 PUSH0 PUSH0 CALLER PUSH20 0xFFFFFFFFFFFFFFFFFFFFFFFFFFFFFFFFFFFFFFFF AND PUSH20 0xFFFFFFFFFFFFFFFFFFFFFFFFFFFFFFFFFFFFFFFF AND DUP2 MSTORE PUSH1 0x20 ADD SWAP1 DUP2 MSTORE PUSH1 0x20 ADD PUSH0 KECCAK256 DUP2 SWAP1 SSTORE POP POP JUMP JUMPDEST PUSH1 0x2 PUSH0 SWAP1 SLOAD SWAP1 PUSH2 0x100 EXP SWAP1 DIV PUSH20 0xFFFFFFFFFFFFFFFFFFFFFFFFFFFFFFFFFFFFFFFF AND PUSH20 0xFFFFFFFFFFFFFFFFFFFFFFFFFFFFFFFFFFFFFFFF AND CALLER PUSH20 0xFFFFFFFFFFFFFFFFFFFFFFFFFFFFFFFFFFFFFFFF AND EQ PUSH2 0x552 JUMPI PUSH1 0x40 MLOAD PUSH32 0x8C379A000000000000000000000000000000000000000000000000000000000 DUP2 MSTORE PUSH1 0x4 ADD PUSH2 0x549 SWAP1 PUSH2 0xA64 JUMP JUMPDEST PUSH1 0x40 MLOAD DUP1 SWAP2 SUB SWAP1 REVERT JUMPDEST PUSH0 PUSH0 SWAP1 POP CALLER PUSH20 0xFFFFFFFFFFFFFFFFFFFFFFFFFFFFFFFFFFFFFFFF AND ADDRESS PUSH20 0xFFFFFFFFFFFFFFFFFFFFFFFFFFFFFFFFFFFFFFFF AND PUSH4 0x12065FE0 PUSH1 0x40 MLOAD DUP2 PUSH4 0xFFFFFFFF AND PUSH1 0xE0 SHL DUP2 MSTORE PUSH1 0x4 ADD PUSH1 0x20 PUSH1 0x40 MLOAD DUP1 DUP4 SUB DUP2 DUP7 GAS STATICCALL ISZERO DUP1 ISZERO PUSH2 0x5B6 JUMPI RETURNDATASIZE PUSH0 PUSH0 RETURNDATACOPY RETURNDATASIZE PUSH0 REVERT JUMPDEST POP POP POP POP PUSH1 0x40 MLOAD RETURNDATASIZE PUSH1 0x1F NOT PUSH1 0x1F DUP3 ADD AND DUP3 ADD DUP1 PUSH1 0x40 MSTORE POP DUP2 ADD SWAP1 PUSH2 0x5DA SWAP2 SWAP1 PUSH2 0xC35 JUMP JUMPDEST PUSH1 0x40 MLOAD PUSH2 0x5E6 SWAP1 PUSH2 0xBA5 JUMP JUMPDEST PUSH0 PUSH1 0x40 MLOAD DUP1 DUP4 SUB DUP2 DUP6 DUP8 GAS CALL SWAP3 POP POP POP RETURNDATASIZE DUP1 PUSH0 DUP2 EQ PUSH2 0x620 JUMPI PUSH1 0x40 MLOAD SWAP2 POP PUSH1 0x1F NOT PUSH1 0x3F RETURNDATASIZE ADD AND DUP3 ADD PUSH1 0x40 MSTORE RETURNDATASIZE DUP3 MSTORE RETURNDATASIZE PUSH0 PUSH1 0x20 DUP5 ADD RETURNDATACOPY PUSH2 0x625 JUMP JUMPDEST PUSH1 0x60 SWAP2 POP JUMPDEST POP POP DUP1 SWAP2 POP POP POP JUMP JUMPDEST PUSH1 0x1 CALLER SWAP1 DUP1 PUSH1 0x1 DUP2 SLOAD ADD DUP1 DUP3 SSTORE DUP1 SWAP2 POP POP PUSH1 0x1 SWAP1 SUB SWAP1 PUSH0 MSTORE PUSH1 0x20 PUSH0 KECCAK256 ADD PUSH0 SWAP1 SWAP2 SWAP1 SWAP2 SWAP1 SWAP2 PUSH2 0x100 EXP DUP2 SLOAD DUP2 PUSH20 0xFFFFFFFFFFFFFFFFFFFFFFFFFFFFFFFFFFFFFFFF MUL NOT AND SWAP1 DUP4 PUSH20 0xFFFFFFFFFFFFFFFFFFFFFFFFFFFFFFFFFFFFFFFF AND MUL OR SWAP1 SSTORE POP CALLVALUE PUSH0 PUSH0 CALLER PUSH20 0xFFFFFFFFFFFFFFFFFFFFFFFFFFFFFFFFFFFFFFFF AND PUSH20 0xFFFFFFFFFFFFFFFFFFFFFFFFFFFFFFFFFFFFFFFF AND DUP2 MSTORE PUSH1 0x20 ADD SWAP1 DUP2 MSTORE PUSH1 0x20 ADD PUSH0 KECCAK256 DUP2 SWAP1 SSTORE POP JUMP JUMPDEST PUSH0 PUSH0 SWAP1 POP JUMPDEST PUSH1 0x1 DUP1 SLOAD SWAP1 POP DUP2 LT ISZERO PUSH2 0x85B JUMPI PUSH0 PUSH1 0x1 DUP3 DUP2 SLOAD DUP2 LT PUSH2 0x6F8 JUMPI PUSH2 0x6F7 PUSH2 0xC60 JUMP JUMPDEST JUMPDEST SWAP1 PUSH0 MSTORE PUSH1 0x20 PUSH0 KECCAK256 ADD PUSH0 SWAP1 SLOAD SWAP1 PUSH2 0x100 EXP SWAP1 DIV PUSH20 0xFFFFFFFFFFFFFFFFFFFFFFFFFFFFFFFFFFFFFFFF AND SWAP1 POP PUSH0 PUSH0 SWAP1 POP DUP2 PUSH20 0xFFFFFFFFFFFFFFFFFFFFFFFFFFFFFFFFFFFFFFFF AND PUSH0 PUSH0 DUP5 PUSH20 0xFFFFFFFFFFFFFFFFFFFFFFFFFFFFFFFFFFFFFFFF AND PUSH20 0xFFFFFFFFFFFFFFFFFFFFFFFFFFFFFFFFFFFFFFFF AND DUP2 MSTORE PUSH1 0x20 ADD SWAP1 DUP2 MSTORE PUSH1 0x20 ADD PUSH0 KECCAK256 SLOAD PUSH1 0x40 MLOAD PUSH2 0x786 SWAP1 PUSH2 0xBA5 JUMP JUMPDEST PUSH0 PUSH1 0x40 MLOAD DUP1 DUP4 SUB DUP2 DUP6 DUP8 GAS CALL SWAP3 POP POP POP RETURNDATASIZE DUP1 PUSH0 DUP2 EQ PUSH2 0x7C0 JUMPI PUSH1 0x40 MLOAD SWAP2 POP PUSH1 0x1F NOT PUSH1 0x3F RETURNDATASIZE ADD AND DUP3 ADD PUSH1 0x40 MSTORE RETURNDATASIZE DUP3 MSTORE RETURNDATASIZE PUSH0 PUSH1 0x20 DUP5 ADD RETURNDATACOPY PUSH2 0x7C5 JUMP JUMPDEST PUSH1 0x60 SWAP2 POP JUMPDEST POP POP DUP1 SWAP2 POP POP DUP1 PUSH2 0x80B JUMPI PUSH1 0x40 MLOAD PUSH32 0x8C379A000000000000000000000000000000000000000000000000000000000 DUP2 MSTORE PUSH1 0x4 ADD PUSH2 0x802 SWAP1 PUSH2 0xCD7 JUMP JUMPDEST PUSH1 0x40 MLOAD DUP1 SWAP2 SUB SWAP1 REVERT JUMPDEST PUSH0 PUSH0 PUSH0 DUP5 PUSH20 0xFFFFFFFFFFFFFFFFFFFFFFFFFFFFFFFFFFFFFFFF AND PUSH20 0xFFFFFFFFFFFFFFFFFFFFFFFFFFFFFFFFFFFFFFFF AND DUP2 MSTORE PUSH1 0x20 ADD SWAP1 DUP2 MSTORE PUSH1 0x20 ADD PUSH0 KECCAK256 DUP2 SWAP1 SSTORE POP POP POP DUP1 DUP1 PUSH1 0x1 ADD SWAP2 POP POP PUSH2 0x6D6 JUMP JUMPDEST POP JUMP JUMPDEST PUSH0 PUSH1 0x20 MSTORE DUP1 PUSH0 MSTORE PUSH1 0x40 PUSH0 KECCAK256 PUSH0 SWAP2 POP SWAP1 POP SLOAD DUP2 JUMP JUMPDEST PUSH1 0x1 DUP2 DUP2 SLOAD DUP2 LT PUSH2 0x881 JUMPI PUSH0 DUP1 REVERT JUMPDEST SWAP1 PUSH0 MSTORE PUSH1 0x20 PUSH0 KECCAK256 ADD PUSH0 SWAP2 POP SLOAD SWAP1 PUSH2 0x100 EXP SWAP1 DIV PUSH20 0xFFFFFFFFFFFFFFFFFFFFFFFFFFFFFFFFFFFFFFFF AND DUP2 JUMP JUMPDEST PUSH0 DUP2 SWAP1 POP SWAP2 SWAP1 POP JUMP JUMPDEST PUSH2 0x8BF DUP2 PUSH2 0x8AD JUMP JUMPDEST DUP3 MSTORE POP POP JUMP JUMPDEST PUSH0 PUSH1 0x20 DUP3 ADD SWAP1 POP PUSH2 0x8D8 PUSH0 DUP4 ADD DUP5 PUSH2 0x8B6 JUMP JUMPDEST SWAP3 SWAP2 POP POP JUMP JUMPDEST PUSH0 PUSH0 REVERT JUMPDEST PUSH0 PUSH20 0xFFFFFFFFFFFFFFFFFFFFFFFFFFFFFFFFFFFFFFFF DUP3 AND SWAP1 POP SWAP2 SWAP1 POP JUMP JUMPDEST PUSH0 PUSH2 0x90B DUP3 PUSH2 0x8E2 JUMP JUMPDEST SWAP1 POP SWAP2 SWAP1 POP JUMP JUMPDEST PUSH2 0x91B DUP2 PUSH2 0x901 JUMP JUMPDEST DUP2 EQ PUSH2 0x925 JUMPI PUSH0 PUSH0 REVERT JUMPDEST POP JUMP JUMPDEST PUSH0 DUP2 CALLDATALOAD SWAP1 POP PUSH2 0x936 DUP2 PUSH2 0x912 JUMP JUMPDEST SWAP3 SWAP2 POP POP JUMP JUMPDEST PUSH0 PUSH1 0x20 DUP3 DUP5 SUB SLT ISZERO PUSH2 0x951 JUMPI PUSH2 0x950 PUSH2 0x8DE JUMP JUMPDEST JUMPDEST PUSH0 PUSH2 0x95E DUP5 DUP3 DUP6 ADD PUSH2 0x928 JUMP JUMPDEST SWAP2 POP POP SWAP3 SWAP2 POP POP JUMP JUMPDEST PUSH2 0x970 DUP2 PUSH2 0x901 JUMP JUMPDEST DUP3 MSTORE POP POP JUMP JUMPDEST PUSH0 PUSH1 0x20 DUP3 ADD SWAP1 POP PUSH2 0x989 PUSH0 DUP4 ADD DUP5 PUSH2 0x967 JUMP JUMPDEST SWAP3 SWAP2 POP POP JUMP JUMPDEST PUSH2 0x998 DUP2 PUSH2 0x8AD JUMP JUMPDEST DUP2 EQ PUSH2 0x9A2 JUMPI PUSH0 PUSH0 REVERT JUMPDEST POP JUMP JUMPDEST PUSH0 DUP2 CALLDATALOAD SWAP1 POP PUSH2 0x9B3 DUP2 PUSH2 0x98F JUMP JUMPDEST SWAP3 SWAP2 POP POP JUMP JUMPDEST PUSH0 PUSH1 0x20 DUP3 DUP5 SUB SLT ISZERO PUSH2 0x9CE JUMPI PUSH2 0x9CD PUSH2 0x8DE JUMP JUMPDEST JUMPDEST PUSH0 PUSH2 0x9DB DUP5 DUP3 DUP6 ADD PUSH2 0x9A5 JUMP JUMPDEST SWAP2 POP POP SWAP3 SWAP2 POP POP JUMP JUMPDEST PUSH0 DUP3 DUP3 MSTORE PUSH1 0x20 DUP3 ADD SWAP1 POP SWAP3 SWAP2 POP POP JUMP JUMPDEST PUSH32 0x546869732066756E6374696F6E2063616E206F6E6C792062652063616C6C6564 PUSH0 DUP3 ADD MSTORE PUSH32 0x206279206F776E65722E00000000000000000000000000000000000000000000 PUSH1 0x20 DUP3 ADD MSTORE POP JUMP JUMPDEST PUSH0 PUSH2 0xA4E PUSH1 0x2A DUP4 PUSH2 0x9E4 JUMP JUMPDEST SWAP2 POP PUSH2 0xA59 DUP3 PUSH2 0x9F4 JUMP JUMPDEST PUSH1 0x40 DUP3 ADD SWAP1 POP SWAP2 SWAP1 POP JUMP JUMPDEST PUSH0 PUSH1 0x20 DUP3 ADD SWAP1 POP DUP2 DUP2 SUB PUSH0 DUP4 ADD MSTORE PUSH2 0xA7B DUP2 PUSH2 0xA42 JUMP JUMPDEST SWAP1 POP SWAP2 SWAP1 POP JUMP JUMPDEST PUSH32 0x546865206164647265737320697320696E76616C69642E000000000000000000 PUSH0 DUP3 ADD MSTORE POP JUMP JUMPDEST PUSH0 PUSH2 0xAB6 PUSH1 0x17 DUP4 PUSH2 0x9E4 JUMP JUMPDEST SWAP2 POP PUSH2 0xAC1 DUP3 PUSH2 0xA82 JUMP JUMPDEST PUSH1 0x20 DUP3 ADD SWAP1 POP SWAP2 SWAP1 POP JUMP JUMPDEST PUSH0 PUSH1 0x20 DUP3 ADD SWAP1 POP DUP2 DUP2 SUB PUSH0 DUP4 ADD MSTORE PUSH2 0xAE3 DUP2 PUSH2 0xAAA JUMP JUMPDEST SWAP1 POP SWAP2 SWAP1 POP JUMP JUMPDEST PUSH32 0x536F7272792C20796F752068617665206E6F20636F696E7320746F2072656675 PUSH0 DUP3 ADD MSTORE PUSH32 0x6E642E0000000000000000000000000000000000000000000000000000000000 PUSH1 0x20 DUP3 ADD MSTORE POP JUMP JUMPDEST PUSH0 PUSH2 0xB44 PUSH1 0x23 DUP4 PUSH2 0x9E4 JUMP JUMPDEST SWAP2 POP PUSH2 0xB4F DUP3 PUSH2 0xAEA JUMP JUMPDEST PUSH1 0x40 DUP3 ADD SWAP1 POP SWAP2 SWAP1 POP JUMP JUMPDEST PUSH0 PUSH1 0x20 DUP3 ADD SWAP1 POP DUP2 DUP2 SUB PUSH0 DUP4 ADD MSTORE PUSH2 0xB71 DUP2 PUSH2 0xB38 JUMP JUMPDEST SWAP1 POP SWAP2 SWAP1 POP JUMP JUMPDEST PUSH0 DUP2 SWAP1 POP SWAP3 SWAP2 POP POP JUMP JUMPDEST POP JUMP JUMPDEST PUSH0 PUSH2 0xB90 PUSH0 DUP4 PUSH2 0xB78 JUMP JUMPDEST SWAP2 POP PUSH2 0xB9B DUP3 PUSH2 0xB82 JUMP JUMPDEST PUSH0 DUP3 ADD SWAP1 POP SWAP2 SWAP1 POP JUMP JUMPDEST PUSH0 PUSH2 0xBAF DUP3 PUSH2 0xB85 JUMP JUMPDEST SWAP2 POP DUP2 SWAP1 POP SWAP2 SWAP1 POP JUMP JUMPDEST PUSH32 0x526566756E64207478206661696C656400000000000000000000000000000000 PUSH0 DUP3 ADD MSTORE POP JUMP JUMPDEST PUSH0 PUSH2 0xBED PUSH1 0x10 DUP4 PUSH2 0x9E4 JUMP JUMPDEST SWAP2 POP PUSH2 0xBF8 DUP3 PUSH2 0xBB9 JUMP JUMPDEST PUSH1 0x20 DUP3 ADD SWAP1 POP SWAP2 SWAP1 POP JUMP JUMPDEST PUSH0 PUSH1 0x20 DUP3 ADD SWAP1 POP DUP2 DUP2 SUB PUSH0 DUP4 ADD MSTORE PUSH2 0xC1A DUP2 PUSH2 0xBE1 JUMP JUMPDEST SWAP1 POP SWAP2 SWAP1 POP JUMP JUMPDEST PUSH0 DUP2 MLOAD SWAP1 POP PUSH2 0xC2F DUP2 PUSH2 0x98F JUMP JUMPDEST SWAP3 SWAP2 POP POP JUMP JUMPDEST PUSH0 PUSH1 0x20 DUP3 DUP5 SUB SLT ISZERO PUSH2 0xC4A JUMPI PUSH2 0xC49 PUSH2 0x8DE JUMP JUMPDEST JUMPDEST PUSH0 PUSH2 0xC57 DUP5 DUP3 DUP6 ADD PUSH2 0xC21 JUMP JUMPDEST SWAP2 POP POP SWAP3 SWAP2 POP POP JUMP JUMPDEST PUSH32 0x4E487B7100000000000000000000000000000000000000000000000000000000 PUSH0 MSTORE PUSH1 0x32 PUSH1 0x4 MSTORE PUSH1 0x24 PUSH0 REVERT JUMPDEST PUSH32 0x526566756E64207478206661696C656420000000000000000000000000000000 PUSH0 DUP3 ADD MSTORE POP JUMP JUMPDEST PUSH0 PUSH2 0xCC1 PUSH1 0x11 DUP4 PUSH2 0x9E4 JUMP JUMPDEST SWAP2 POP PUSH2 0xCCC DUP3 PUSH2 0xC8D JUMP JUMPDEST PUSH1 0x20 DUP3 ADD SWAP1 POP SWAP2 SWAP1 POP JUMP JUMPDEST PUSH0 PUSH1 0x20 DUP3 ADD SWAP1 POP DUP2 DUP2 SUB PUSH0 DUP4 ADD MSTORE PUSH2 0xCEE DUP2 PUSH2 0xCB5 JUMP JUMPDEST SWAP1 POP SWAP2 SWAP1 POP JUMP INVALID LOG2 PUSH5 0x6970667358 0x22 SLT KECCAK256 MLOAD 0xBB 0xC6 0xD4 BALANCE 0xF8 0xE4 0xB9 COINBASE 0xEA REVERT 0xA7 SWAP12 0xD2 JUMP 0xB0 SGT PUSH25 0x1FD764F92FA4758DD39CB5FCEB8064736F6C634300081C0033 "
				},
				"gasEstimates": {
					"creation": {
						"codeDepositCost": "674200",
						"executionCost": "24971",
						"totalCost": "699171"
					},
					"external": {
						"autoRefund()": "infinite",
						"fund()": "70893",
						"funders(uint256)": "5010",
						"fundersToAccount(address)": "2845",
						"getBalance()": "335",
						"getFund()": "infinite",
						"refund()": "infinite",
						"setOwner(address)": "infinite"
					}
				},
				"methodIdentifiers": {
					"autoRefund()": "b723ae75",
					"fund()": "b60d4288",
					"funders(uint256)": "dc0d3dff",
					"fundersToAccount(address)": "c6da75a6",
					"getBalance()": "12065fe0",
					"getFund()": "8edd6eb6",
					"refund()": "590e1ae3",
					"setOwner(address)": "13af4035"
				}
			},
			"storageLayout": {
				"storage": [
					{
						"astId": 5,
						"contract": "Fund.sol:Fund",
						"label": "fundersToAccount",
						"offset": 0,
						"slot": "0",
						"type": "t_mapping(t_address,t_uint256)"
					},
					{
						"astId": 8,
						"contract": "Fund.sol:Fund",
						"label": "funders",
						"offset": 0,
						"slot": "1",
						"type": "t_array(t_address)dyn_storage"
					},
					{
						"astId": 10,
						"contract": "Fund.sol:Fund",
						"label": "owner",
						"offset": 0,
						"slot": "2",
						"type": "t_address"
					}
				],
				"types": {
					"t_address": {
						"encoding": "inplace",
						"label": "address",
						"numberOfBytes": "20"
					},
					"t_array(t_address)dyn_storage": {
						"base": "t_address",
						"encoding": "dynamic_array",
						"label": "address[]",
						"numberOfBytes": "32"
					},
					"t_mapping(t_address,t_uint256)": {
						"encoding": "mapping",
						"key": "t_address",
						"label": "mapping(address => uint256)",
						"numberOfBytes": "32",
						"value": "t_uint256"
					},
					"t_uint256": {
						"encoding": "inplace",
						"label": "uint256",
						"numberOfBytes": "32"
					}
				}
			},
			"userdoc": {
				"kind": "user",
				"methods": {},
				"version": 1
			}
		}
	}
}